{
  "_format": "hh-sol-artifact-1",
  "contractName": "Seed",
  "sourceName": "contracts/defi/seed.sol",
  "abi": [
    {
      "inputs": [
        {
          "internalType": "contract IERC20",
          "name": "_token",
          "type": "address"
        },
        {
          "internalType": "address",
          "name": "_reserve",
          "type": "address"
        }
      ],
      "stateMutability": "nonpayable",
      "type": "constructor"
    },
    {
      "anonymous": false,
      "inputs": [
        {
          "indexed": true,
          "internalType": "address",
          "name": "previousOwner",
          "type": "address"
        },
        {
          "indexed": true,
          "internalType": "address",
          "name": "newOwner",
          "type": "address"
        }
      ],
      "name": "OwnershipTransferred",
      "type": "event"
    },
    {
      "anonymous": false,
      "inputs": [
        {
          "indexed": false,
          "internalType": "address",
          "name": "artist",
          "type": "address"
        },
        {
          "indexed": false,
          "internalType": "uint256",
          "name": "amount",
          "type": "uint256"
        },
        {
          "indexed": false,
          "internalType": "uint256",
          "name": "claimTime",
          "type": "uint256"
        }
      ],
      "name": "artistRewardClaimEvent",
      "type": "event"
    },
    {
      "anonymous": false,
      "inputs": [
        {
          "indexed": false,
          "internalType": "address[]",
          "name": "artist",
          "type": "address[]"
        },
        {
          "indexed": false,
          "internalType": "uint256[]",
          "name": "amount",
          "type": "uint256[]"
        },
        {
          "indexed": false,
          "internalType": "uint256",
          "name": "round",
          "type": "uint256"
        },
        {
          "indexed": false,
          "internalType": "uint256",
          "name": "disTime",
          "type": "uint256"
        }
      ],
      "name": "artistRewardDistEvent",
      "type": "event"
    },
    {
      "anonymous": false,
      "inputs": [
        {
          "indexed": false,
          "internalType": "uint256",
          "name": "round",
          "type": "uint256"
        },
        {
          "indexed": false,
          "internalType": "uint256",
          "name": "roundEndTime",
          "type": "uint256"
        },
        {
          "indexed": false,
          "internalType": "address[]",
          "name": "artistList",
          "type": "address[]"
        },
        {
          "indexed": false,
          "internalType": "uint256[]",
          "name": "artistReward",
          "type": "uint256[]"
        }
      ],
      "name": "endRoundEvent",
      "type": "event"
    },
    {
      "anonymous": false,
      "inputs": [
        {
          "indexed": false,
          "internalType": "address",
          "name": "seeder",
          "type": "address"
        },
        {
          "indexed": false,
          "internalType": "uint256",
          "name": "amount",
          "type": "uint256"
        },
        {
          "indexed": false,
          "internalType": "uint256",
          "name": "claimTime",
          "type": "uint256"
        }
      ],
      "name": "seederClaimEvent",
      "type": "event"
    },
    {
      "anonymous": false,
      "inputs": [
        {
          "indexed": false,
          "internalType": "address",
          "name": "seeder",
          "type": "address"
        },
        {
          "indexed": false,
          "internalType": "uint256",
          "name": "amount",
          "type": "uint256"
        },
        {
          "indexed": false,
          "internalType": "uint256",
          "name": "claimTime",
          "type": "uint256"
        }
      ],
      "name": "seederImClaimEvent",
      "type": "event"
    },
    {
      "anonymous": false,
      "inputs": [
        {
          "indexed": false,
          "internalType": "address[]",
          "name": "artists",
          "type": "address[]"
        },
        {
          "indexed": false,
          "internalType": "uint256[]",
          "name": "rewards",
          "type": "uint256[]"
        },
        {
          "indexed": false,
          "internalType": "address",
          "name": "seeder",
          "type": "address"
        },
        {
          "indexed": false,
          "internalType": "uint256",
          "name": "round",
          "type": "uint256"
        }
      ],
      "name": "seederRewardInfoEvent",
      "type": "event"
    },
    {
      "anonymous": false,
      "inputs": [
        {
          "indexed": false,
          "internalType": "uint256",
          "name": "round",
          "type": "uint256"
        },
        {
          "indexed": false,
          "internalType": "address",
          "name": "seeder",
          "type": "address"
        },
        {
          "indexed": false,
          "internalType": "uint256",
          "name": "reqTime",
          "type": "uint256"
        },
        {
          "indexed": false,
          "internalType": "uint256",
          "name": "claimTime",
          "type": "uint256"
        }
      ],
      "name": "seederRewardReqEvent",
      "type": "event"
    },
    {
      "anonymous": false,
      "inputs": [
        {
          "indexed": false,
          "internalType": "address",
          "name": "artist",
          "type": "address"
        },
        {
          "indexed": false,
          "internalType": "address",
          "name": "seeder",
          "type": "address"
        },
        {
          "indexed": false,
          "internalType": "uint256",
          "name": "amount",
          "type": "uint256"
        },
        {
          "indexed": false,
          "internalType": "uint256",
          "name": "seedingTime",
          "type": "uint256"
        }
      ],
      "name": "seedingEvent",
      "type": "event"
    },
    {
      "anonymous": false,
      "inputs": [
        {
          "indexed": false,
          "internalType": "uint256",
          "name": "round",
          "type": "uint256"
        },
        {
          "indexed": false,
          "internalType": "uint256",
          "name": "roundStartTime",
          "type": "uint256"
        }
      ],
      "name": "startRoundEvent",
      "type": "event"
    },
    {
      "anonymous": false,
      "inputs": [
        {
          "indexed": false,
          "internalType": "address",
          "name": "artist",
          "type": "address"
        },
        {
          "indexed": false,
          "internalType": "address",
          "name": "seeder",
          "type": "address"
        },
        {
          "indexed": false,
          "internalType": "uint256",
          "name": "amount",
          "type": "uint256"
        },
        {
          "indexed": false,
          "internalType": "uint256",
          "name": "unseedTime",
          "type": "uint256"
        }
      ],
      "name": "unseedEvent",
      "type": "event"
    },
    {
      "inputs": [],
      "name": "artistRewardClaim",
      "outputs": [],
      "stateMutability": "nonpayable",
      "type": "function"
    },
    {
      "inputs": [],
      "name": "currentRound",
      "outputs": [
        {
          "internalType": "uint256",
          "name": "",
          "type": "uint256"
        }
      ],
      "stateMutability": "view",
      "type": "function"
    },
    {
      "inputs": [
        {
          "internalType": "uint256",
          "name": "_roundRewardAmount",
          "type": "uint256"
        }
      ],
      "name": "endRound",
      "outputs": [],
      "stateMutability": "nonpayable",
      "type": "function"
    },
    {
      "inputs": [],
      "name": "getAllArtists",
      "outputs": [
        {
          "components": [
            {
              "internalType": "address",
              "name": "_artist",
              "type": "address"
            },
            {
              "internalType": "uint256",
              "name": "_seedingAmount",
              "type": "uint256"
            },
            {
              "internalType": "uint256",
              "name": "_commission",
              "type": "uint256"
            },
            {
              "internalType": "bool",
              "name": "_jailed",
              "type": "bool"
            }
          ],
          "internalType": "struct Seed.artistInfo[]",
          "name": "",
          "type": "tuple[]"
        }
      ],
      "stateMutability": "view",
      "type": "function"
    },
    {
      "inputs": [],
      "name": "getArtistCount",
      "outputs": [
        {
          "internalType": "uint256",
          "name": "_count",
          "type": "uint256"
        }
      ],
      "stateMutability": "view",
      "type": "function"
    },
    {
      "inputs": [
        {
          "internalType": "address",
          "name": "_artist",
          "type": "address"
        },
        {
          "internalType": "uint256",
          "name": "_round",
          "type": "uint256"
        }
      ],
      "name": "getArtistRewardInfo",
      "outputs": [
        {
          "components": [
            {
              "internalType": "uint256",
              "name": "_rewardAmount",
              "type": "uint256"
            },
            {
              "internalType": "uint256",
              "name": "_rewardTime",
              "type": "uint256"
            },
            {
              "internalType": "bool",
              "name": "_withdrawn",
              "type": "bool"
            }
          ],
          "internalType": "struct Seed.artistRewardInfo",
          "name": "",
          "type": "tuple"
        }
      ],
      "stateMutability": "view",
      "type": "function"
    },
    {
      "inputs": [
        {
          "internalType": "address",
          "name": "_artist",
          "type": "address"
        }
      ],
      "name": "getArtistSeeder",
      "outputs": [
        {
          "components": [
            {
              "internalType": "address",
              "name": "_seeder",
              "type": "address"
            },
            {
              "internalType": "uint256",
              "name": "_amount",
              "type": "uint256"
            },
            {
              "internalType": "uint256",
              "name": "_seedingRound",
              "type": "uint256"
            },
            {
              "internalType": "uint256",
              "name": "_seedingTime",
              "type": "uint256"
            },
            {
              "internalType": "enum Seed.seedStatus",
              "name": "_seedStatus",
              "type": "uint8"
            }
          ],
          "internalType": "struct Seed.seederInfo[]",
          "name": "",
          "type": "tuple[]"
        }
      ],
      "stateMutability": "view",
      "type": "function"
    },
    {
      "inputs": [
        {
          "internalType": "address",
          "name": "_artist",
          "type": "address"
        },
        {
          "internalType": "address",
          "name": "_seeder",
          "type": "address"
        }
      ],
      "name": "getArtistSeederInfo",
      "outputs": [
        {
          "components": [
            {
              "internalType": "address",
              "name": "_seeder",
              "type": "address"
            },
            {
              "internalType": "uint256",
              "name": "_amount",
              "type": "uint256"
            },
            {
              "internalType": "uint256",
              "name": "_seedingRound",
              "type": "uint256"
            },
            {
              "internalType": "uint256",
              "name": "_seedingTime",
              "type": "uint256"
            },
            {
              "internalType": "enum Seed.seedStatus",
              "name": "_seedStatus",
              "type": "uint8"
            }
          ],
          "internalType": "struct Seed.seederInfo",
          "name": "",
          "type": "tuple"
        }
      ],
      "stateMutability": "view",
      "type": "function"
    },
    {
      "inputs": [
        {
          "internalType": "uint256",
          "name": "_round",
          "type": "uint256"
        }
      ],
      "name": "getReserveAmount",
      "outputs": [
        {
          "internalType": "uint256",
          "name": "",
          "type": "uint256"
        }
      ],
      "stateMutability": "view",
      "type": "function"
    },
    {
      "inputs": [
        {
          "internalType": "uint256",
          "name": "_round",
          "type": "uint256"
        }
      ],
      "name": "getRoundArtistOrder",
      "outputs": [
        {
          "components": [
            {
              "internalType": "address",
              "name": "_artist",
              "type": "address"
            },
            {
              "internalType": "uint256",
              "name": "_seedingAmount",
              "type": "uint256"
            },
            {
              "internalType": "uint256",
              "name": "_commission",
              "type": "uint256"
            },
            {
              "internalType": "bool",
              "name": "_jailed",
              "type": "bool"
            }
          ],
          "internalType": "struct Seed.artistInfo[]",
          "name": "",
          "type": "tuple[]"
        }
      ],
      "stateMutability": "view",
      "type": "function"
    },
    {
      "inputs": [
        {
          "internalType": "uint256",
          "name": "round",
          "type": "uint256"
        }
      ],
      "name": "getRoundInfo",
      "outputs": [
        {
          "components": [
            {
              "internalType": "bool",
              "name": "_roundStatus",
              "type": "bool"
            },
            {
              "internalType": "uint256",
              "name": "_tierCount",
              "type": "uint256"
            },
            {
              "internalType": "uint256",
              "name": "_roundStartTime",
              "type": "uint256"
            },
            {
              "internalType": "uint256",
              "name": "_roundEndTime",
              "type": "uint256"
            },
            {
              "internalType": "uint256",
              "name": "_totalSeeding",
              "type": "uint256"
            },
            {
              "internalType": "uint256",
              "name": "_roundReward",
              "type": "uint256"
            },
            {
              "internalType": "uint256",
              "name": "_claimReward",
              "type": "uint256"
            }
          ],
          "internalType": "struct Seed.roundInfo",
          "name": "",
          "type": "tuple"
        }
      ],
      "stateMutability": "view",
      "type": "function"
    },
    {
      "inputs": [
        {
          "internalType": "uint256",
          "name": "_round",
          "type": "uint256"
        },
        {
          "internalType": "address",
          "name": "_seeder",
          "type": "address"
        },
        {
          "internalType": "address",
          "name": "_artist",
          "type": "address"
        }
      ],
      "name": "getRoundSeederArtistAmount",
      "outputs": [
        {
          "internalType": "uint256",
          "name": "seederAmount",
          "type": "uint256"
        }
      ],
      "stateMutability": "view",
      "type": "function"
    },
    {
      "inputs": [
        {
          "internalType": "uint256",
          "name": "_round",
          "type": "uint256"
        },
        {
          "internalType": "address",
          "name": "_artist",
          "type": "address"
        }
      ],
      "name": "getRoundSeedersReward",
      "outputs": [
        {
          "internalType": "uint256",
          "name": "",
          "type": "uint256"
        }
      ],
      "stateMutability": "view",
      "type": "function"
    },
    {
      "inputs": [
        {
          "internalType": "uint256",
          "name": "_round",
          "type": "uint256"
        }
      ],
      "name": "getRoundTotalAmount",
      "outputs": [
        {
          "internalType": "uint256",
          "name": "",
          "type": "uint256"
        }
      ],
      "stateMutability": "view",
      "type": "function"
    },
    {
      "inputs": [
        {
          "internalType": "address",
          "name": "_artist",
          "type": "address"
        },
        {
          "internalType": "address",
          "name": "_seeder",
          "type": "address"
        }
      ],
      "name": "getSeederAmount",
      "outputs": [
        {
          "internalType": "uint256",
          "name": "",
          "type": "uint256"
        }
      ],
      "stateMutability": "view",
      "type": "function"
    },
    {
      "inputs": [
        {
          "internalType": "address",
          "name": "_seeder",
          "type": "address"
        },
        {
          "internalType": "address",
          "name": "_artist",
          "type": "address"
        }
      ],
      "name": "getSeederArtistTxInfo",
      "outputs": [
        {
          "components": [
            {
              "internalType": "uint256",
              "name": "_round",
              "type": "uint256"
            },
            {
              "internalType": "uint256",
              "name": "_amount",
              "type": "uint256"
            },
            {
              "internalType": "uint256",
              "name": "_actionTime",
              "type": "uint256"
            }
          ],
          "internalType": "struct Seed.seederActionInfo[]",
          "name": "",
          "type": "tuple[]"
        }
      ],
      "stateMutability": "view",
      "type": "function"
    },
    {
      "inputs": [
        {
          "internalType": "address",
          "name": "_seeder",
          "type": "address"
        }
      ],
      "name": "getSeederReward",
      "outputs": [
        {
          "components": [
            {
              "internalType": "uint256",
              "name": "_round",
              "type": "uint256"
            },
            {
              "internalType": "uint256",
              "name": "_amount",
              "type": "uint256"
            },
            {
              "internalType": "uint256",
              "name": "_requestTime",
              "type": "uint256"
            },
            {
              "internalType": "enum Seed.claimStatus",
              "name": "_claimStatus",
              "type": "uint8"
            }
          ],
          "internalType": "struct Seed.seederRewardInfo[]",
          "name": "",
          "type": "tuple[]"
        }
      ],
      "stateMutability": "view",
      "type": "function"
    },
    {
      "inputs": [],
      "name": "getToken",
      "outputs": [],
      "stateMutability": "nonpayable",
      "type": "function"
    },
    {
      "inputs": [
        {
          "internalType": "address[]",
          "name": "_artistAddress",
          "type": "address[]"
        }
      ],
      "name": "jailArtist",
      "outputs": [],
      "stateMutability": "nonpayable",
      "type": "function"
    },
    {
      "inputs": [],
      "name": "owner",
      "outputs": [
        {
          "internalType": "address",
          "name": "",
          "type": "address"
        }
      ],
      "stateMutability": "view",
      "type": "function"
    },
    {
      "inputs": [],
      "name": "renounceOwnership",
      "outputs": [],
      "stateMutability": "nonpayable",
      "type": "function"
    },
    {
      "inputs": [],
      "name": "reserveAddress",
      "outputs": [
        {
          "internalType": "address",
          "name": "",
          "type": "address"
        }
      ],
      "stateMutability": "view",
      "type": "function"
    },
    {
      "inputs": [],
      "name": "seederClaim",
      "outputs": [],
      "stateMutability": "nonpayable",
      "type": "function"
    },
    {
      "inputs": [
        {
          "internalType": "address",
          "name": "",
          "type": "address"
        }
      ],
      "name": "seederClaimAmount",
      "outputs": [
        {
          "internalType": "uint256",
          "name": "",
          "type": "uint256"
        }
      ],
      "stateMutability": "view",
      "type": "function"
    },
    {
      "inputs": [],
      "name": "seederImClaim",
      "outputs": [],
      "stateMutability": "nonpayable",
      "type": "function"
    },
    {
      "inputs": [
        {
          "internalType": "uint256",
          "name": "_round",
          "type": "uint256"
        },
        {
          "internalType": "address[]",
          "name": "_artists",
          "type": "address[]"
        }
      ],
      "name": "seederRewardReq",
      "outputs": [],
      "stateMutability": "nonpayable",
      "type": "function"
    },
    {
      "inputs": [
        {
          "internalType": "address",
          "name": "",
          "type": "address"
        }
      ],
      "name": "seederTotalReward",
      "outputs": [
        {
          "internalType": "uint256",
          "name": "",
          "type": "uint256"
        }
      ],
      "stateMutability": "view",
      "type": "function"
    },
    {
      "inputs": [
        {
          "internalType": "address",
          "name": "_to",
          "type": "address"
        },
        {
          "internalType": "uint256",
          "name": "_seedingAmount",
          "type": "uint256"
        }
      ],
      "name": "seeding",
      "outputs": [],
      "stateMutability": "nonpayable",
      "type": "function"
    },
    {
      "inputs": [
        {
          "internalType": "address[]",
          "name": "_artistAddress",
          "type": "address[]"
        },
        {
          "internalType": "uint256[]",
          "name": "_commissions",
          "type": "uint256[]"
        },
        {
          "internalType": "uint256",
          "name": "_arrayCount",
          "type": "uint256"
        }
      ],
      "name": "setArtist",
      "outputs": [],
      "stateMutability": "nonpayable",
      "type": "function"
    },
    {
      "inputs": [
        {
          "internalType": "bool",
          "name": "_enabled",
          "type": "bool"
        }
      ],
      "name": "setPause",
      "outputs": [],
      "stateMutability": "nonpayable",
      "type": "function"
    },
    {
      "inputs": [
        {
          "internalType": "address[]",
          "name": "_artists",
          "type": "address[]"
        },
        {
          "internalType": "uint256[]",
          "name": "_denominators",
          "type": "uint256[]"
        },
        {
          "internalType": "uint256[]",
          "name": "_weights",
          "type": "uint256[]"
        },
        {
          "internalType": "address",
          "name": "_seeder",
          "type": "address"
        },
        {
          "internalType": "uint256",
          "name": "_round",
          "type": "uint256"
        },
        {
          "internalType": "uint256",
          "name": "_arrayLength",
          "type": "uint256"
        }
      ],
      "name": "setSeederRewardInfo",
      "outputs": [],
      "stateMutability": "nonpayable",
      "type": "function"
    },
    {
      "inputs": [
        {
          "internalType": "uint256",
          "name": "_tierCnt",
          "type": "uint256"
        }
      ],
      "name": "startRound",
      "outputs": [],
      "stateMutability": "nonpayable",
      "type": "function"
    },
    {
      "inputs": [],
      "name": "token",
      "outputs": [
        {
          "internalType": "contract IERC20",
          "name": "",
          "type": "address"
        }
      ],
      "stateMutability": "view",
      "type": "function"
    },
    {
      "inputs": [
        {
          "internalType": "address",
          "name": "newOwner",
          "type": "address"
        }
      ],
      "name": "transferOwnership",
      "outputs": [],
      "stateMutability": "nonpayable",
      "type": "function"
    },
    {
      "inputs": [
        {
          "internalType": "address[]",
          "name": "_artistAddress",
          "type": "address[]"
        }
      ],
      "name": "unjailArtist",
      "outputs": [],
      "stateMutability": "nonpayable",
      "type": "function"
    },
    {
      "inputs": [
        {
          "internalType": "address",
          "name": "_artist",
          "type": "address"
        }
      ],
      "name": "unseeding",
      "outputs": [],
      "stateMutability": "nonpayable",
      "type": "function"
    },
    {
      "inputs": [
        {
          "internalType": "address[]",
          "name": "_artistAddress",
          "type": "address[]"
        },
        {
          "internalType": "uint256[]",
          "name": "_commissions",
          "type": "uint256[]"
        },
        {
          "internalType": "uint256",
          "name": "_arrayCount",
          "type": "uint256"
        }
      ],
      "name": "updateArtist",
      "outputs": [],
      "stateMutability": "nonpayable",
      "type": "function"
    }
  ],
  "bytecode": "0x60c0604052611c2060045560646005556001600655600360075560046008553480156200002b57600080fd5b5060405162004969380380620049698339810160408190526200004e91620000e8565b62000059336200007f565b600180556001600160a01b039182166080521660a052601a805460ff1916905562000127565b600080546001600160a01b038381166001600160a01b0319831681178455604051919092169283917f8be0079c531659141344cd1fd0a4f28419497f9722a3daafe3b4186f6b6457e09190a35050565b6001600160a01b0381168114620000e557600080fd5b50565b60008060408385031215620000fc57600080fd5b82516200010981620000cf565b60208401519092506200011c81620000cf565b809150509250929050565b60805160a0516147dd6200018c600039600081816105800152610e370152600081816105cf01528181610716015281816107980152818161095901528181610e1501528181611675015281816124be015281816128fa0152612aaa01526147dd6000f3fe608060405234801561001057600080fd5b50600436106102275760003560e01c80639f52609411610130578063bedb86fb116100b8578063f2fde38b1161007c578063f2fde38b14610568578063f79ed94b1461057b578063f803ace3146105a2578063fbfb35bf146105aa578063fc0c546a146105ca57600080fd5b8063bedb86fb146104ee578063c00f423514610501578063c13765ab14610521578063d14fd9db14610558578063e23bff9d1461056057600080fd5b8063aa7d3a5a116100ff578063aa7d3a5a14610477578063aaa345691461048a578063ab026e6514610492578063b93e80cb146104a5578063b95551a9146104db57600080fd5b80639f526094146104015780639f54190414610421578063a19a167b14610444578063aa1241441461046457600080fd5b80636cbdb06b116101b35780638a19c8bc116101825780638a19c8bc1461038d5780638da5cb5b1461039657806396899390146103bb5780639b27462e146103ce5780639ef340ff146103e157600080fd5b80636cbdb06b146102f4578063715018a614610307578063874bfdd81461030f57806388c3ffb01461032257600080fd5b806347eed4c6116101fa57806347eed4c61461027a5780635a1e6ca11461029b5780635fc3d52d146102ae5780635fcc3c25146102c157806366a0ee3b146102e157600080fd5b80630f5c40231461022c57806321df0da714610241578063283d7ce1146102495780633724d71914610251575b600080fd5b61023f61023a366004613f23565b6105f1565b005b61023f6106f6565b61023f6107c2565b61026461025f366004613f90565b6109d0565b6040516102719190613fc3565b60405180910390f35b61028d61028836600461401c565b610a71565b604051908152602001610271565b61023f6102a936600461401c565b610aab565b61023f6102bc36600461401c565b610d18565b6102d46102cf36600461401c565b610eaf565b6040516102719190614035565b61023f6102ef366004614097565b610f51565b61023f610302366004613f23565b610ff0565b61023f6111e4565b61023f61031d3660046140cc565b6111f6565b61033561033036600461401c565b611435565b6040516102719190600060e0820190508251151582526020830151602083015260408301516040830152606083015160608301526080830151608083015260a083015160a083015260c083015160c083015292915050565b61028d60095481565b6000546001600160a01b03165b6040516001600160a01b039091168152602001610271565b61028d6103c9366004613f90565b6114df565b61023f6103dc366004614113565b61153b565b6103f46103ef36600461413d565b611aef565b604051610271919061418c565b61028d61040f36600461413d565b60196020526000908152604090205481565b61028d61042f36600461401c565b6000908152600f602052604090206004015490565b61028d61045236600461413d565b60186020526000908152604090205481565b61023f6104723660046141ec565b611bb0565b61023f610485366004614097565b611df1565b600a5461028d565b61028d6104a0366004614297565b611e8c565b61028d6104b33660046142d3565b60009182526013602090815260408084206001600160a01b0393909316845291905290205490565b61023f6104e936600461413d565b611fb1565b61023f6104fc366004614304565b612540565b61051461050f366004613f90565b61255b565b6040516102719190614365565b61053461052f366004614113565b612760565b60408051825181526020808401519082015291810151151590820152606001610271565b61023f6127d8565b61023f612973565b61023f61057636600461413d565b612b26565b6103a37f000000000000000000000000000000000000000000000000000000000000000081565b6102d4612b9c565b6105bd6105b836600461413d565b612c2b565b6040516102719190614373565b6103a37f000000000000000000000000000000000000000000000000000000000000000081565b6105f9612cfd565b8083511480156106095750808251145b61064c5760405162461bcd60e51b815260206004820152600f60248201526e185c9c985e481cda5e994819985a5b608a1b60448201526064015b60405180910390fd5b60005b818110156106f0576000600a600b6000878581518110610671576106716143c1565b60200260200101516001600160a01b03166001600160a01b0316815260200190815260200160002054815481106106aa576106aa6143c1565b906000526020600020906004020190508382815181106106cc576106cc6143c1565b602002602001015181600201819055505080806106e8906143ed565b91505061064f565b50505050565b6106fe612cfd565b6040516370a0823160e01b81523060048201526000907f00000000000000000000000000000000000000000000000000000000000000006001600160a01b0316906370a0823190602401602060405180830381865afa158015610765573d6000803e3d6000fd5b505050506040513d601f19601f820116820180604052508101906107899190614406565b90506107bf6001600160a01b037f0000000000000000000000000000000000000000000000000000000000000000163383612d57565b50565b6107ca612dbf565b601a5460ff16156107f75760405162461bcd60e51b81526020600482015260006024820152604401610643565b336000908152601460205260409020546108485760405162461bcd60e51b81526020600482015260126024820152713430bb32903737902932bbb0b932103337b960711b6044820152606401610643565b33600090815260156020908152604080832054601490925290912054116108a75760405162461bcd60e51b81526020600482015260136024820152720496d436c61696d20726577617264206973203606c1b6044820152606401610643565b6000806108b333612e18565b90925090508042816108fd5760405162461bcd60e51b81526020600482015260136024820152720496d436c61696d20726577617264206973203606c1b6044820152606401610643565b336000908152601860205260409020546109179085612fe5565b3360009081526018602052604090205561093d606461093784600a612ff1565b90612ffd565b91506109498383613009565b6003556109806001600160a01b037f0000000000000000000000000000000000000000000000000000000000000000163384612d57565b60408051338152602081018490529081018290527f1e9c3c7fc2cc1f706d4a34a4bc34f4597f2357a5bd2fe789050716007a9698ba9060600160405180910390a1505050506109ce60018055565b565b6001600160a01b0380831660009081526010602090815260408083209385168352928152828220805484518184028101840190955280855260609493919290919084015b82821015610a645783829060005260206000209060030201604051806060016040529081600082015481526020016001820154815260200160028201548152505081526020019060010190610a14565b5050505090505b92915050565b6000818152600f6020526040812060068101546005909101546003548392610aa4929091610a9e91612fe5565b90613009565b9392505050565b610ab3612cfd565b6009546000908152600f602052604090205460ff161515600114610b0f5760405162461bcd60e51b8152602060048201526013602482015272155b98589b19481d1bc8195b99081c9bdd5b99606a1b6044820152606401610643565b6009546000908152600f60205260408120805460ff19168155600581018390556002805491928492610b4290849061441f565b9091555060009050610b52613015565b905060005b8151811015610c09576009546000908152600c602052604090208251839083908110610b8557610b856143c1565b602090810291909101810151825460018082018555600094855293839020825160049092020180546001600160a01b0319166001600160a01b039092169190911781559181015192820192909255604082015160028201556060909101516003909101805460ff191691151591909117905580610c01816143ed565b915050610b57565b50600080610cc4600c60006009548152602001908152602001600020805480602002602001604051908101604052809291908181526020016000905b82821015610ca7576000848152602090819020604080516080810182526004860290920180546001600160a01b03168352600180820154848601526002820154928401929092526003015460ff16151560608301529083529092019101610c45565b50506009546000908152600c602052604090205491506130c19050565b42600387018190556009546040519395509193507ff74ca0429ed1adf49557d2756b9aaf91383c336050445eb47a1b2c84897f0d9f92610d09929190869086906144a6565b60405180910390a15050505050565b610d20612cfd565b6009546000908152600f602052604090205460ff1615610d7a5760405162461bcd60e51b8152602060048201526015602482015274155b98589b19481d1bc81cdd185c9d081c9bdd5b99605a1b6044820152606401610643565b60098054906000610d8a836143ed565b9091555050600980546000908152600f602081905260408220600180820186905593549093919291610dbb916144d7565b81526020810191909152604001600090812060049081015490830155426002830155815460ff1916600117825560085460095410610e6257610e0660075460095461028891906144d7565b9050610e5c6001600160a01b037f0000000000000000000000000000000000000000000000000000000000000000167f000000000000000000000000000000000000000000000000000000000000000083612d57565b60006003555b7f49095cc09a7196d38b557b25e6e4ec9e876163fa9f4c2aa9c43fa891711d6bb86009548360020154604051610ea2929190918252602082015260400190565b60405180910390a1505050565b6060600c6000838152602001908152602001600020805480602002602001604051908101604052809291908181526020016000905b82821015610f46576000848152602090819020604080516080810182526004860290920180546001600160a01b03168352600180820154848601526002820154928401929092526003015460ff16151560608301529083529092019101610ee4565b505050509050919050565b610f59612cfd565b60005b8151811015610fec576000600a600b6000858581518110610f7f57610f7f6143c1565b60200260200101516001600160a01b03166001600160a01b031681526020019081526020016000205481548110610fb857610fb86143c1565b60009182526020909120600490910201600301805460ff191691151591909117905580610fe4816143ed565b915050610f5c565b5050565b610ff8612cfd565b8083511480156110085750808251145b6110465760405162461bcd60e51b815260206004820152600f60248201526e185c9c985e481cda5e994819985a5b608a1b6044820152606401610643565b60005b818110156106f05760006040518060800160405280868481518110611070576110706143c1565b60200260200101516001600160a01b031681526020016000815260200185848151811061109f5761109f6143c1565b60200260200101518152602001600015158152509050600a80549050600b60008785815181106110d1576110d16143c1565b6020908102919091018101516001600160a01b039081168352828201939093526040918201600090812094909455600a8054600181018255945284517fc65a7bb8d6351c1cf70c95a316cc6a92839c986682d98bc35f958f4883f9d2a8600490950294850180546001600160a01b0319169190941617909255908301517fc65a7bb8d6351c1cf70c95a316cc6a92839c986682d98bc35f958f4883f9d2a98301558201517fc65a7bb8d6351c1cf70c95a316cc6a92839c986682d98bc35f958f4883f9d2aa8201556060909101517fc65a7bb8d6351c1cf70c95a316cc6a92839c986682d98bc35f958f4883f9d2ab909101805460ff1916911515919091179055806111dc816143ed565b915050611049565b6111ec612cfd565b6109ce6000613347565b6111fe612dbf565b601a5460ff161561122b5760405162461bcd60e51b81526020600482015260006024820152604401610643565b60095482106112915760405162461bcd60e51b815260206004820152602c60248201527f7265717565737420726f756e64206d757374206265206c657373207468616e2060448201526b18dd5c9c995b9d149bdd5b9960a21b6064820152608401610643565b61129a82613397565b6112e65760405162461bcd60e51b815260206004820152601c60248201527f746865205265717565737420726f756e642068617320706173736564000000006044820152606401610643565b6112f18233836133d2565b61133d5760405162461bcd60e51b815260206004820152601960248201527f6d73672e73656e646572206973206e6f742073656564696e67000000000000006044820152606401610643565b600082815260176020908152604080832033845290915290205460ff16156113985760405162461bcd60e51b815260206004820152600e60248201526d185b1958591e481c995c5d595cdd60921b6044820152606401610643565b60008281526017602090815260408083203384529091529020805460ff191660011790556004546113c9904261441f565b6000838152601660209081526040808320338085529083529281902084905580518681529182019290925242818301526060810192909252517f1bb010b2048083909f8d5e7226775c8c4f93792314a000360b5375340d3ea0209181900360800190a1610fec60018055565b6114776040518060e001604052806000151581526020016000815260200160008152602001600081526020016000815260200160008152602001600081525090565b506000908152600f6020908152604091829020825160e081018452815460ff16151581526001820154928101929092526002810154928201929092526003820154606082015260048201546080820152600582015460a082015260069091015460c082015290565b6001600160a01b038083166000908152600d60209081526040808320600e835281842094861684529390915281205482549192918110611521576115216143c1565b906000526020600020906005020160010154905092915050565b611543612dbf565b601a5460ff16156115705760405162461bcd60e51b81526020600482015260006024820152604401610643565b6009546000908152600f602052604090205460ff1615156001146115d65760405162461bcd60e51b815260206004820152601860248201527f726f756e64206973206e6f7420737461727473746174757300000000000000006044820152606401610643565b6001600160a01b0382166000908152600b6020526040902054600a80549091908110611604576116046143c1565b600091825260209091206003600490920201015460ff16156116685760405162461bcd60e51b815260206004820152601860248201527f73656564696e6720617274697374206973206a61696c656400000000000000006044820152606401610643565b61169d6001600160a01b037f000000000000000000000000000000000000000000000000000000000000000016333084613431565b6001600160a01b0382166000908152600b6020526040812054600a805490919081106116cb576116cb6143c1565b906000526020600020906004020190506116f2828260010154612fe590919063ffffffff16565b600182015560006117033385613469565b156118055760006040518060a00160405280336001600160a01b0316815260200185815260200160095481526020014281526020016001600281111561174b5761174b614158565b90526001600160a01b038681166000908152600d602081815260408084208054600e845282862033875284528286208190559383526001808501825590855293829020865160059094020180546001600160a01b031916939095169290921784558401518383015583015160028084019190915560608401516003840155608084015160048401805495965086959193909260ff199092169184908111156117f5576117f5614158565b021790555050508391505061187b565b6001600160a01b0384166000908152600d60209081526040808320600e835281842033855290925282205481548110611840576118406143c1565b90600052602060002090600502019050611867848260010154612fe590919063ffffffff16565b600182018190554260039092019190915590505b3360009081526010602090815260408083206001600160a01b0388168452825280832080548251818502810185019093528083529192909190849084015b8282101561190957838290600052602060002090600302016040518060600160405290816000820154815260200160018201548152602001600282015481525050815260200190600101906118b9565b50505050905080516000148061194b5750600954816001835161192c91906144d7565b8151811061193c5761193c6143c1565b60200260200101516000015114155b156119bd57604080516060810182526009548152602080820185815242838501908152336000908152601084528581206001600160a01b038c16825284529485208054600181810183559187529390952093516003909302909301918255519281019290925551600290910155611a6e565b3360009081526010602090815260408083206001600160a01b0389168452909152902080544291906119f1906001906144d7565b81548110611a0157611a016143c1565b60009182526020808320600392909202909101600201929092553381526010825260408082206001600160a01b0389168352909252208054839190611a48906001906144d7565b81548110611a5857611a586143c1565b9060005260206000209060030201600101819055505b6009546000908152600f602052604090206004810154611a8e9086612fe5565b6004820155604080516001600160a01b03881681523360208201529081018690524260608201527f84cda7a0cce1113404623d46fa39158b562ab15ea338acaca468685a70cb5d579060800160405180910390a150505050610fec60018055565b6001600160a01b0381166000908152601460209081526040808320805482518185028101850190935280835260609492939192909184015b82821015610f4657838290600052602060002090600402016040518060800160405290816000820154815260200160018201548152602001600282015481526020016003820160009054906101000a900460ff166002811115611b8c57611b8c614158565b6002811115611b9d57611b9d614158565b8152505081526020019060010190611b27565b611bb8612cfd565b6000828152600f6020526040812090808367ffffffffffffffff811115611be157611be1613dd4565b604051908082528060200260200182016040528015611c0a578160200160208202803683370190505b50905060005b84811015611cb1576000611c7287898d8581518110611c3157611c316143c1565b60200260200101518c8681518110611c4b57611c4b6143c1565b60200260200101518e8781518110611c6557611c656143c1565b6020026020010151613581565b9050611c7e8482612fe5565b935080838381518110611c9357611c936143c1565b60209081029190910101525080611ca9816143ed565b915050611c10565b506040805160808101825286815260208082018581526000898152601683528481206001600160a01b038c1680835290845285822054858701908152606086018381529183526014855295822080546001808201835591845294909220855160049095020193845591518382015593516002808401919091559051600383018054949586959293919260ff1916918490811115611d5057611d50614158565b021790555050506001600160a01b038716600090815260196020526040902054611d7a9084612fe5565b6001600160a01b0388166000908152601960205260409020556006840154611da29084612fe5565b60068501556040517fc3fb7b2500089285f6a7e77ab8daa66edb98f93bfc4f266261635d8502d698ef90611ddd908c9085908b908b906144ea565b60405180910390a150505050505050505050565b611df9612cfd565b60005b8151811015610fec576001600a600b6000858581518110611e1f57611e1f6143c1565b60200260200101516001600160a01b03166001600160a01b031681526020019081526020016000205481548110611e5857611e586143c1565b60009182526020909120600490910201600301805460ff191691151591909117905580611e84816143ed565b915050611dfc565b6001600160a01b03808316600090815260106020908152604080832093851683529281528282208054845181840281018401909552808552929384939092849084015b82821015611f1f5783829060005260206000209060030201604051806060016040529081600082015481526020016001820154815260200160028201548152505081526020019060010190611ecf565b5050505090508051600003611f38576000915050610aa4565b600060018251611f4891906144d7565b9050805b86838281518110611f5f57611f5f6143c1565b60200260200101516000015111611f9557828181518110611f8257611f826143c1565b6020026020010151602001519350611fa7565b80611f9f8161452c565b915050611f4c565b5050509392505050565b611fb9612dbf565b6001600160a01b0381166000908152600d60209081526040808320600e835281842033808652935292205482549192918110611ff757611ff76143c1565b60009182526020909120600590910201546001600160a01b03161461205e5760405162461bcd60e51b815260206004820152601f60248201527f6d73672e73656e646572206973206e6f742061727469737420736565646572006044820152606401610643565b6001600160a01b0381166000908152600d60209081526040808320600e835281842033855290925282205481548110612099576120996143c1565b906000526020600020906005020160010154116120f85760405162461bcd60e51b815260206004820152601860248201527f6d73672e73656e646572206973206e6f742073656564657200000000000000006044820152606401610643565b6001600160a01b0381166000908152600d60209081526040808320600e835281842033855290925282205481548110612133576121336143c1565b60009182526020808320600160059093020191909101546009546001600160a01b0386168452600d83526040808520600e8552818620338752909452909320548254919450908110612187576121876143c1565b60009182526020808320600260059093020191909101929092556001600160a01b0384168152600d82526040808220600e845281832033845290935290205481544292919081106121da576121da6143c1565b60009182526020808320600360059093020191909101929092556001600160a01b0384168152600d82526040808220600e845281832033845290935290205481546002929190811061222e5761222e6143c1565b60009182526020909120600460059092020101805460ff1916600183600281111561225b5761225b614158565b02179055506001600160a01b0382166000908152600d60209081526040808320600e83528184203385529092528220548154811061229b5761229b6143c1565b9060005260206000209060050201600101819055506000600a600b6000856001600160a01b03166001600160a01b0316815260200190815260200160002054815481106122ea576122ea6143c1565b9060005260206000209060040201905061231182826001015461300990919063ffffffff16565b60018201556009546000908152600f6020526040902060048101546123369084613009565b60048201556009543360009081526010602090815260408083206001600160a01b03891684529091529020805461236f906001906144d7565b8154811061237f5761237f6143c1565b9060005260206000209060030201600001540361244a573360009081526010602090815260408083206001600160a01b0388168452909152902080544291906123ca906001906144d7565b815481106123da576123da6143c1565b60009182526020808320600392909202909101600201929092553381526010825260408082206001600160a01b03881683529092529081208054612420906001906144d7565b81548110612430576124306143c1565b9060005260206000209060030201600101819055506124b1565b6040805160608101825260095481526000602080830182815242848601908152338452601083528584206001600160a01b038b1685528352948320805460018181018355918552929093209351600390920290930190815591519082015590516002909101555b6124e56001600160a01b037f0000000000000000000000000000000000000000000000000000000000000000163385612d57565b604080516001600160a01b03861681523360208201529081018490524260608201527fb289630b62bf2351c32a1f45b1db1b6bd02c7d8c4411355585b52f9ec7b648439060800160405180910390a15050506107bf60018055565b612548612cfd565b601a805460ff1916911515919091179055565b612563613d8c565b6001600160a01b038084166000908152600d60209081526040808320600e8352818420948716845293909152812054825491929181106125a5576125a56143c1565b60009182526020918290206040805160a081018252600590930290910180546001600160a01b0316835260018101549383019390935260028084015491830191909152600383015460608301526004830154919291608084019160ff9091169081111561261457612614614158565b600281111561262557612625614158565b815250509050826001600160a01b031681600001516001600160a01b031614612696576040518060a0016040528060006001600160a01b031681526020016000815260200160008152602001600081526020016000600281111561268b5761268b614158565b815250915050610a6b565b6001600160a01b038085166000908152600d60209081526040808320600e8352818420948816845293909152902054815481106126d5576126d56143c1565b60009182526020918290206040805160a081018252600590930290910180546001600160a01b0316835260018101549383019390935260028084015491830191909152600383015460608301526004830154919291608084019160ff9091169081111561274457612744614158565b600281111561275557612755614158565b905250949350505050565b612786604051806060016040528060008152602001600081526020016000151581525090565b5060008181526011602090815260408083206001600160a01b03861684528252918290208251606081018452815481526001820154928101929092526002015460ff1615159181019190915292915050565b6127e0612dbf565b336000818152600b6020526040902054600a80549091908110612805576128056143c1565b60009182526020909120600490910201546001600160a01b0316146128635760405162461bcd60e51b81526020600482015260146024820152731cd95b99195c881a5cc81b9bdd08185c9d1a5cdd60621b6044820152606401610643565b33600090815260126020526040812054900361288d57336000908152601260205260409020600190555b600080612899336135f0565b91509150600082116128e25760405162461bcd60e51b815260206004820152601260248201527106172746973742072657761726420697320360741b6044820152606401610643565b336000818152601260205260409020829055612929907f00000000000000000000000000000000000000000000000000000000000000006001600160a01b03169084612d57565b6040805133815260208101849052428183015290517f92f096744d52cc81655d1210846f674d2de6c20b23f02be8139397eca6eb15cf9181900360600190a150506109ce60018055565b61297b612dbf565b601a5460ff16156129a85760405162461bcd60e51b81526020600482015260006024820152604401610643565b336000908152601460205260409020546129f95760405162461bcd60e51b81526020600482015260126024820152713430bb32903737902932bbb0b932103337b960711b6044820152606401610643565b600080612a053361370a565b90925090504282151580612a2757503360009081526018602052604090205415155b612a675760405162461bcd60e51b81526020600482015260116024820152700636c61696d20726577617264206973203607c1b6044820152606401610643565b33600090815260186020526040902054612a82908490612fe5565b33600081815260186020908152604080832083905560159091529020849055909350612ad9907f00000000000000000000000000000000000000000000000000000000000000006001600160a01b03169085612d57565b60408051338152602081018590529081018290527f59066aa3a230e98d23e44d05780778d7df866ae2f3dd5a95b2d64c7eeba520169060600160405180910390a15050506109ce60018055565b612b2e612cfd565b6001600160a01b038116612b935760405162461bcd60e51b815260206004820152602660248201527f4f776e61626c653a206e6577206f776e657220697320746865207a65726f206160448201526564647265737360d01b6064820152608401610643565b6107bf81613347565b6060600a805480602002602001604051908101604052809291908181526020016000905b82821015612c22576000848152602090819020604080516080810182526004860290920180546001600160a01b03168352600180820154848601526002820154928401929092526003015460ff16151560608301529083529092019101612bc0565b50505050905090565b6001600160a01b0381166000908152600d60209081526040808320805482518185028101850190935280835260609492939192909184015b82821015610f465760008481526020908190206040805160a0810182526005860290920180546001600160a01b0316835260018101549383019390935260028084015491830191909152600383015460608301526004830154919291608084019160ff90911690811115612cd957612cd9614158565b6002811115612cea57612cea614158565b8152505081526020019060010190612c63565b6000546001600160a01b031633146109ce5760405162461bcd60e51b815260206004820181905260248201527f4f776e61626c653a2063616c6c6572206973206e6f7420746865206f776e65726044820152606401610643565b6040516001600160a01b038316602482015260448101829052612dba90849063a9059cbb60e01b906064015b60408051601f198184030181529190526020810180516001600160e01b03166001600160e01b03199093169290921790915261384b565b505050565b600260015403612e115760405162461bcd60e51b815260206004820152601f60248201527f5265656e7472616e637947756172643a207265656e7472616e742063616c6c006044820152606401610643565b6002600155565b6001600160a01b03811660009081526014602090815260408083206015909252822054829190829081905b8354811015612fc15742848281548110612e5f57612e5f6143c1565b90600052602060002090600402016002015411158015612eb857506000848281548110612e8e57612e8e6143c1565b600091825260209091206003600490920201015460ff166002811115612eb657612eb6614158565b145b15612f3957838181548110612ecf57612ecf6143c1565b90600052602060002090600402016001015483612eec919061441f565b92506001848281548110612f0257612f026143c1565b60009182526020909120600360049092020101805460ff19166001836002811115612f2f57612f2f614158565b0217905550612fb1565b838181548110612f4b57612f4b6143c1565b90600052602060002090600402016001015482612f68919061441f565b91506002848281548110612f7e57612f7e6143c1565b60009182526020909120600360049092020101805460ff19166001836002811115612fab57612fab614158565b02179055505b612fba816143ed565b9050612e43565b6001600160a01b039096166000908152601560205260409020959095559492505050565b6000610aa4828461441f565b6000610aa48284614543565b6000610aa48284614570565b6000610aa482846144d7565b60606000600a805480602002602001604051908101604052809291908181526020016000905b8282101561309d576000848152602090819020604080516080810182526004860290920180546001600160a01b03168352600180820154848601526002820154928401929092526003015460ff1615156060830152908352909201910161303b565b5050505090506130bc816000600184516130b791906144d7565b61391d565b919050565b6009546000908152600f602052604081206001810154600582015460609384939290916130ee9190614570565b905060008567ffffffffffffffff81111561310b5761310b613dd4565b604051908082528060200260200182016040528015613134578160200160208202803683370190505b50905060008667ffffffffffffffff81111561315257613152613dd4565b60405190808252806020026020018201604052801561317b578160200160208202803683370190505b50905060005b8781101561333957600061319e61319983600161441f565b613ad5565b9150600090506131ae8683612ffd565b905060008b84815181106131c4576131c46143c1565b6020026020010151602001516000036131df57506000613217565b60648c85815181106131f3576131f36143c1565b6020026020010151604001518361320a9190614543565b6132149190614570565b90505b8b8481518110613229576132296143c1565b602002602001015160000151868581518110613247576132476143c1565b60200260200101906001600160a01b031690816001600160a01b0316815250508085858151811061327a5761327a6143c1565b602090810291909101015260068801546132949082612fe5565b60068901556132a38282613009565b60136000600954815260200190815260200160002060008e87815181106132cc576132cc6143c1565b6020026020010151600001516001600160a01b03166001600160a01b03168152602001908152602001600020819055506133238c8581518110613311576133116143c1565b60200260200101516000015182613b84565b5050508080613331906143ed565b915050613181565b509097909650945050505050565b600080546001600160a01b038381166001600160a01b0319831681178455604051919092169283917f8be0079c531659141344cd1fd0a4f28419497f9722a3daafe3b4186f6b6457e09190a35050565b6000600360095410156133ac57506001919050565b6002826009546133bc91906144d7565b11156133ca57506000919050565b506001919050565b6000805b82518110156134265761340385858584815181106133f6576133f66143c1565b6020026020010151611e8c565b600003613414576000915050610aa4565b8061341e816143ed565b9150506133d6565b506001949350505050565b6040516001600160a01b03808516602483015283166044820152606481018290526106f09085906323b872dd60e01b90608401612d83565b6001600160a01b0381166000908152600d6020526040812054810361349057506001610a6b565b6001600160a01b038083166000908152600d60209081526040808320600e8352818420948816845293909152812054825491929181106134d2576134d26143c1565b60009182526020918290206040805160a081018252600590930290910180546001600160a01b0316835260018101549383019390935260028084015491830191909152600383015460608301526004830154919291608084019160ff9091169081111561354157613541614158565b600281111561355257613552614158565b90525080519091506001600160a01b03808616911603613575576000915061357a565b600191505b5092915050565b60008581526013602090815260408083206001600160a01b0387168452909152812054816135b0888888611e8c565b9050806000036135c5576000925050506135e7565b6005546135e2906109378681866135dc8b88612ff1565b90612ff1565b925050505b95945050505050565b6001600160a01b038116600090815260126020526040812054600654600954839291839161361e91906144d7565b90506000825b8281116136fe5760008181526011602090815260408083206001600160a01b038b1684529091529020600101544210801590613686575060008181526011602090815260408083206001600160a01b038b16845290915290206002015460ff16155b156136ec5760008181526011602090815260408083206001600160a01b038b1684529091529020546136b9908390612fe5565b60008281526011602090815260408083206001600160a01b038c1684529091529020600201805460ff1916600117905591505b806136f6816143ed565b915050613624565b90969095509350505050565b6001600160a01b0381166000908152601460209081526040808320601590925282205482919082905b8254811015613840574283828154811061374f5761374f6143c1565b906000526020600020906004020160020154111580156137a85750600083828154811061377e5761377e6143c1565b600091825260209091206003600490920201015460ff1660028111156137a6576137a6614158565b145b15613829578281815481106137bf576137bf6143c1565b906000526020600020906004020160010154826137dc919061441f565b915060018382815481106137f2576137f26143c1565b60009182526020909120600360049092020101805460ff1916600183600281111561381f5761381f614158565b021790555061382e565b613840565b80613838816143ed565b915050613733565b909590945092505050565b60006138a0826040518060400160405280602081526020017f5361666545524332303a206c6f772d6c6576656c2063616c6c206661696c6564815250856001600160a01b0316613bfc9092919063ffffffff16565b805190915015612dba57808060200190518101906138be9190614584565b612dba5760405162461bcd60e51b815260206004820152602a60248201527f5361666545524332303a204552433230206f7065726174696f6e20646964206e6044820152691bdd081cdd58d8d9595960b21b6064820152608401610643565b6040805160808101825260008082526020820181905291810182905260608101919091528290829081830361395457505050505050565b600086600261396388886145a1565b61396d91906145c1565b61397790886145ef565b81518110613987576139876143c1565b60200260200101516020015190505b828413613aa6575b808785815181106139b1576139b16143c1565b60200260200101516020015111156139d557836139cd81614617565b94505061399e565b8683815181106139e7576139e76143c1565b602002602001015160200151811115613a0c5782613a048161462f565b9350506139d5565b828413613aa157868481518110613a2557613a256143c1565b60200260200101519150868381518110613a4157613a416143c1565b6020026020010151878581518110613a5b57613a5b6143c1565b602002602001018190525081878481518110613a7957613a796143c1565b60200260200101819052508380613a8f90614617565b9450508280613a9d9061462f565b9350505b613996565b82861215613ab957613ab987878561391d565b84841215613acc57613acc87858761391d565b50505050505050565b6009546000908152600f6020526040812060019081015482915b818111613b7d576000613b03826003614728565b613b0e87600a614543565b613b189190614570565b9050600a8111613b6a5781945084600103613b365760039350613b64565b613b416001866144d7565b613b4c906003614728565b613b57866003614728565b613b6191906144d7565b93505b50613b7d565b5080613b75816143ed565b915050613aef565b5050915091565b6000604051806060016040528083815260200160045442613ba5919061441f565b81526000602091820181905260095481526011825260408082206001600160a01b03979097168252958252859020825181559082015160018201559301516002909301805460ff1916931515939093179092555050565b6060613c0b8484600085613c13565b949350505050565b606082471015613c745760405162461bcd60e51b815260206004820152602660248201527f416464726573733a20696e73756666696369656e742062616c616e636520666f6044820152651c8818d85b1b60d21b6064820152608401610643565b600080866001600160a01b03168587604051613c909190614758565b60006040518083038185875af1925050503d8060008114613ccd576040519150601f19603f3d011682016040523d82523d6000602084013e613cd2565b606091505b5091509150613ce387838387613cee565b979650505050505050565b60608315613d5d578251600003613d56576001600160a01b0385163b613d565760405162461bcd60e51b815260206004820152601d60248201527f416464726573733a2063616c6c20746f206e6f6e2d636f6e74726163740000006044820152606401610643565b5081613c0b565b613c0b8383815115613d725781518083602001fd5b8060405162461bcd60e51b81526004016106439190614774565b6040518060a0016040528060006001600160a01b0316815260200160008152602001600081526020016000815260200160006002811115613dcf57613dcf614158565b905290565b634e487b7160e01b600052604160045260246000fd5b604051601f8201601f1916810167ffffffffffffffff81118282101715613e1357613e13613dd4565b604052919050565b600067ffffffffffffffff821115613e3557613e35613dd4565b5060051b60200190565b80356001600160a01b03811681146130bc57600080fd5b600082601f830112613e6757600080fd5b81356020613e7c613e7783613e1b565b613dea565b82815260059290921b84018101918181019086841115613e9b57600080fd5b8286015b84811015613ebd57613eb081613e3f565b8352918301918301613e9f565b509695505050505050565b600082601f830112613ed957600080fd5b81356020613ee9613e7783613e1b565b82815260059290921b84018101918181019086841115613f0857600080fd5b8286015b84811015613ebd5780358352918301918301613f0c565b600080600060608486031215613f3857600080fd5b833567ffffffffffffffff80821115613f5057600080fd5b613f5c87838801613e56565b94506020860135915080821115613f7257600080fd5b50613f7f86828701613ec8565b925050604084013590509250925092565b60008060408385031215613fa357600080fd5b613fac83613e3f565b9150613fba60208401613e3f565b90509250929050565b602080825282518282018190526000919060409081850190868401855b8281101561400f5781518051855286810151878601528501518585015260609093019290850190600101613fe0565b5091979650505050505050565b60006020828403121561402e57600080fd5b5035919050565b602080825282518282018190526000919060409081850190868401855b8281101561400f57815180516001600160a01b031685528681015187860152858101518686015260609081015115159085015260809093019290850190600101614052565b6000602082840312156140a957600080fd5b813567ffffffffffffffff8111156140c057600080fd5b613c0b84828501613e56565b600080604083850312156140df57600080fd5b82359150602083013567ffffffffffffffff8111156140fd57600080fd5b61410985828601613e56565b9150509250929050565b6000806040838503121561412657600080fd5b61412f83613e3f565b946020939093013593505050565b60006020828403121561414f57600080fd5b610aa482613e3f565b634e487b7160e01b600052602160045260246000fd5b600381106107bf57634e487b7160e01b600052602160045260246000fd5b602080825282518282018190526000919060409081850190868401855b8281101561400f5781518051855286810151878601528581015186860152606090810151906141d78261416e565b850152608090930192908501906001016141a9565b60008060008060008060c0878903121561420557600080fd5b863567ffffffffffffffff8082111561421d57600080fd5b6142298a838b01613e56565b9750602089013591508082111561423f57600080fd5b61424b8a838b01613ec8565b9650604089013591508082111561426157600080fd5b5061426e89828a01613ec8565b94505061427d60608801613e3f565b92506080870135915060a087013590509295509295509295565b6000806000606084860312156142ac57600080fd5b833592506142bc60208501613e3f565b91506142ca60408501613e3f565b90509250925092565b600080604083850312156142e657600080fd5b82359150613fba60208401613e3f565b80151581146107bf57600080fd5b60006020828403121561431657600080fd5b8135610aa4816142f6565b80516001600160a01b03168252602080820151908301526040808201519083015260608082015190830152608081015161435a8161416e565b806080840152505050565b60a08101610a6b8284614321565b6020808252825182820181905260009190848201906040850190845b818110156143b5576143a2838551614321565b9284019260a0929092019160010161438f565b50909695505050505050565b634e487b7160e01b600052603260045260246000fd5b634e487b7160e01b600052601160045260246000fd5b6000600182016143ff576143ff6143d7565b5060010190565b60006020828403121561441857600080fd5b5051919050565b80820180821115610a6b57610a6b6143d7565b600081518084526020808501945080840160005b8381101561446b5781516001600160a01b031687529582019590820190600101614446565b509495945050505050565b600081518084526020808501945080840160005b8381101561446b5781518752958201959082019060010161448a565b8481528360208201526080604082015260006144c56080830185614432565b8281036060840152613ce38185614476565b81810381811115610a6b57610a6b6143d7565b6080815260006144fd6080830187614432565b828103602084015261450f8187614476565b6001600160a01b0395909516604084015250506060015292915050565b60008161453b5761453b6143d7565b506000190190565b8082028115828204841417610a6b57610a6b6143d7565b634e487b7160e01b600052601260045260246000fd5b60008261457f5761457f61455a565b500490565b60006020828403121561459657600080fd5b8151610aa4816142f6565b818103600083128015838313168383128216171561357a5761357a6143d7565b6000826145d0576145d061455a565b600160ff1b8214600019841416156145ea576145ea6143d7565b500590565b808201828112600083128015821682158216171561460f5761460f6143d7565b505092915050565b60006001600160ff1b0182016143ff576143ff6143d7565b6000600160ff1b820161453b5761453b6143d7565b600181815b8085111561467f578160001904821115614665576146656143d7565b8085161561467257918102915b93841c9390800290614649565b509250929050565b60008261469657506001610a6b565b816146a357506000610a6b565b81600181146146b957600281146146c3576146df565b6001915050610a6b565b60ff8411156146d4576146d46143d7565b50506001821b610a6b565b5060208310610133831016604e8410600b8410161715614702575081810a610a6b565b61470c8383614644565b8060001904821115614720576147206143d7565b029392505050565b6000610aa48383614687565b60005b8381101561474f578181015183820152602001614737565b50506000910152565b6000825161476a818460208701614734565b9190910192915050565b6020815260008251806020840152614793816040850160208701614734565b601f01601f1916919091016040019291505056fea26469706673582212201145ad69a9a7e85f7562197631fe191bb9d8c13a2407c2bd68627e7b5d9dab2064736f6c63430008110033",
  "linkReferences": {},
  "deployedLinkReferences": {}
}