{
  "_format": "hh-sol-artifact-1",
  "contractName": "ADFStaking",
  "sourceName": "contracts/defi/Launchpad/staking.sol",
  "abi": [
    {
      "inputs": [
        {
          "internalType": "contract IERC20",
          "name": "_token",
          "type": "address"
        },
        {
          "internalType": "contract IVoting",
          "name": "_voting",
          "type": "address"
        },
        {
          "internalType": "contract ISeeding",
          "name": "_seedingContract",
          "type": "address"
        }
      ],
      "stateMutability": "nonpayable",
      "type": "constructor"
    },
    {
      "anonymous": false,
      "inputs": [
        {
          "indexed": true,
          "internalType": "address",
          "name": "previousOwner",
          "type": "address"
        },
        {
          "indexed": true,
          "internalType": "address",
          "name": "newOwner",
          "type": "address"
        }
      ],
      "name": "OwnershipTransferred",
      "type": "event"
    },
    {
      "anonymous": false,
      "inputs": [
        {
          "indexed": false,
          "internalType": "uint256",
          "name": "endTime",
          "type": "uint256"
        }
      ],
      "name": "endLaunchPadEvent",
      "type": "event"
    },
    {
      "anonymous": false,
      "inputs": [
        {
          "indexed": false,
          "internalType": "address",
          "name": "user",
          "type": "address"
        },
        {
          "indexed": false,
          "internalType": "uint256",
          "name": "unStakingAmount",
          "type": "uint256"
        },
        {
          "indexed": false,
          "internalType": "uint256",
          "name": "unStakingTime",
          "type": "uint256"
        }
      ],
      "name": "preLaunchPadUnStakingEvent",
      "type": "event"
    },
    {
      "anonymous": false,
      "inputs": [
        {
          "indexed": false,
          "internalType": "address",
          "name": "user",
          "type": "address"
        },
        {
          "indexed": false,
          "internalType": "uint256",
          "name": "claimAmount",
          "type": "uint256"
        },
        {
          "indexed": false,
          "internalType": "uint256",
          "name": "claimTime",
          "type": "uint256"
        }
      ],
      "name": "rewardClaimEvent",
      "type": "event"
    },
    {
      "anonymous": false,
      "inputs": [
        {
          "indexed": false,
          "internalType": "address",
          "name": "user",
          "type": "address"
        },
        {
          "indexed": false,
          "internalType": "uint256",
          "name": "accReward",
          "type": "uint256"
        },
        {
          "indexed": false,
          "internalType": "uint256",
          "name": "requestTime",
          "type": "uint256"
        }
      ],
      "name": "rewardRequestEvent",
      "type": "event"
    },
    {
      "anonymous": false,
      "inputs": [
        {
          "indexed": false,
          "internalType": "address",
          "name": "user",
          "type": "address"
        },
        {
          "indexed": false,
          "internalType": "uint256",
          "name": "amount",
          "type": "uint256"
        },
        {
          "indexed": false,
          "internalType": "uint256",
          "name": "time",
          "type": "uint256"
        }
      ],
      "name": "stakingEvent",
      "type": "event"
    },
    {
      "anonymous": false,
      "inputs": [
        {
          "indexed": false,
          "internalType": "uint256",
          "name": "startTime",
          "type": "uint256"
        }
      ],
      "name": "startLaunchPadEvent",
      "type": "event"
    },
    {
      "anonymous": false,
      "inputs": [
        {
          "indexed": false,
          "internalType": "address",
          "name": "user",
          "type": "address"
        },
        {
          "indexed": false,
          "internalType": "uint256",
          "name": "amount",
          "type": "uint256"
        },
        {
          "indexed": false,
          "internalType": "uint256",
          "name": "time",
          "type": "uint256"
        }
      ],
      "name": "unStakingEvent",
      "type": "event"
    },
    {
      "inputs": [],
      "name": "endLaunchPad",
      "outputs": [],
      "stateMutability": "nonpayable",
      "type": "function"
    },
    {
      "inputs": [],
      "name": "getCurrentLaunchPadId",
      "outputs": [
        {
          "internalType": "uint256",
          "name": "",
          "type": "uint256"
        }
      ],
      "stateMutability": "view",
      "type": "function"
    },
    {
      "inputs": [
        {
          "internalType": "uint256",
          "name": "_launchPadId",
          "type": "uint256"
        }
      ],
      "name": "getPoolInfoById",
      "outputs": [
        {
          "components": [
            {
              "internalType": "bool",
              "name": "isAction",
              "type": "bool"
            },
            {
              "internalType": "uint256",
              "name": "totalDeposit",
              "type": "uint256"
            },
            {
              "internalType": "uint256",
              "name": "rewardDeposit",
              "type": "uint256"
            }
          ],
          "internalType": "struct IStaking.RewardPool[]",
          "name": "",
          "type": "tuple[]"
        }
      ],
      "stateMutability": "view",
      "type": "function"
    },
    {
      "inputs": [
        {
          "internalType": "uint256",
          "name": "_launchPadId",
          "type": "uint256"
        },
        {
          "internalType": "uint256",
          "name": "_poolIndex",
          "type": "uint256"
        }
      ],
      "name": "getPoolInfoByIdAnIndex",
      "outputs": [
        {
          "components": [
            {
              "internalType": "bool",
              "name": "isAction",
              "type": "bool"
            },
            {
              "internalType": "uint256",
              "name": "totalDeposit",
              "type": "uint256"
            },
            {
              "internalType": "uint256",
              "name": "rewardDeposit",
              "type": "uint256"
            }
          ],
          "internalType": "struct IStaking.RewardPool",
          "name": "",
          "type": "tuple"
        }
      ],
      "stateMutability": "view",
      "type": "function"
    },
    {
      "inputs": [],
      "name": "getTotalDeposit",
      "outputs": [
        {
          "internalType": "uint256",
          "name": "",
          "type": "uint256"
        }
      ],
      "stateMutability": "view",
      "type": "function"
    },
    {
      "inputs": [
        {
          "internalType": "address",
          "name": "_user",
          "type": "address"
        }
      ],
      "name": "getUserCurrentReward",
      "outputs": [
        {
          "internalType": "uint256",
          "name": "",
          "type": "uint256"
        }
      ],
      "stateMutability": "view",
      "type": "function"
    },
    {
      "inputs": [
        {
          "internalType": "address",
          "name": "_user",
          "type": "address"
        }
      ],
      "name": "getUserStakingAmount",
      "outputs": [
        {
          "internalType": "uint256",
          "name": "",
          "type": "uint256"
        }
      ],
      "stateMutability": "view",
      "type": "function"
    },
    {
      "inputs": [],
      "name": "owner",
      "outputs": [
        {
          "internalType": "address",
          "name": "",
          "type": "address"
        }
      ],
      "stateMutability": "view",
      "type": "function"
    },
    {
      "inputs": [
        {
          "internalType": "uint256",
          "name": "_launchPadId",
          "type": "uint256"
        }
      ],
      "name": "preLaunchPadUnStaking",
      "outputs": [],
      "stateMutability": "nonpayable",
      "type": "function"
    },
    {
      "inputs": [],
      "name": "renounceOwnership",
      "outputs": [],
      "stateMutability": "nonpayable",
      "type": "function"
    },
    {
      "inputs": [],
      "name": "rewardClaim",
      "outputs": [],
      "stateMutability": "nonpayable",
      "type": "function"
    },
    {
      "inputs": [],
      "name": "rewardRequest",
      "outputs": [],
      "stateMutability": "nonpayable",
      "type": "function"
    },
    {
      "inputs": [
        {
          "internalType": "uint256",
          "name": "_amount",
          "type": "uint256"
        },
        {
          "internalType": "address",
          "name": "_artist",
          "type": "address"
        }
      ],
      "name": "staking",
      "outputs": [],
      "stateMutability": "nonpayable",
      "type": "function"
    },
    {
      "inputs": [
        {
          "internalType": "uint256",
          "name": "_totalDistReward",
          "type": "uint256"
        },
        {
          "internalType": "uint256",
          "name": "_startTime",
          "type": "uint256"
        },
        {
          "internalType": "address[]",
          "name": "_artists",
          "type": "address[]"
        }
      ],
      "name": "startLaunchPad",
      "outputs": [],
      "stateMutability": "nonpayable",
      "type": "function"
    },
    {
      "inputs": [
        {
          "internalType": "address",
          "name": "newOwner",
          "type": "address"
        }
      ],
      "name": "transferOwnership",
      "outputs": [],
      "stateMutability": "nonpayable",
      "type": "function"
    },
    {
      "inputs": [
        {
          "internalType": "uint256",
          "name": "_amount",
          "type": "uint256"
        }
      ],
      "name": "unStaking",
      "outputs": [],
      "stateMutability": "nonpayable",
      "type": "function"
    }
  ],
  "bytecode": "0x60e060405260646002556101506003556104b06004553480156200002257600080fd5b5060405162002043380380620020438339810160408190526200004591620000db565b620000503362000072565b600180556001600160a01b0392831660805290821660a0521660c0526200012f565b600080546001600160a01b038381166001600160a01b0319831681178455604051919092169283917f8be0079c531659141344cd1fd0a4f28419497f9722a3daafe3b4186f6b6457e09190a35050565b6001600160a01b0381168114620000d857600080fd5b50565b600080600060608486031215620000f157600080fd5b8351620000fe81620000c2565b60208501519093506200011181620000c2565b60408501519092506200012481620000c2565b809150509250925092565b60805160a05160c051611eb66200018d600039600050506000818161033101528181610be901528181610c8e01528181610ed701526113860152600081816106240152818161073f01528181610d320152610f8f0152611eb66000f3fe608060405234801561001057600080fd5b50600436106101005760003560e01c806387cd149211610097578063c022215c11610066578063c022215c1461020a578063d81e8f3314610212578063f2fde38b14610232578063f8bcf5bf1461024557600080fd5b806387cd1492146101c15780638da5cb5b146101d457806392c26728146101ef578063bc27e197146101f757600080fd5b80636409f921116100d35780636409f9211461018b578063715018a6146101935780637d3cbf7c1461019b57806386f43a41146101ae57600080fd5b80632d993bc5146101055780635b87ca781461014e5780635d40b8e31461016e5780635eec6ecf14610183575b600080fd5b61013b610113366004611adc565b6001600160a01b03166000908152600860209081526040808320600954845290915290205490565b6040519081526020015b60405180910390f35b61016161015c366004611af7565b61024d565b6040516101459190611b19565b61018161017c366004611b52565b6102db565b005b6101816103d8565b610181610580565b610181610689565b6101816101a9366004611c2c565b61069d565b6101816101bc366004611c2c565b6107ae565b61013b6101cf366004611adc565b610d8c565b6000546040516001600160a01b039091168152602001610145565b610181610ecd565b610181610205366004611c45565b610f79565b60065461013b565b610225610220366004611c2c565b611452565b6040516101459190611c71565b610181610240366004611adc565b6114e3565b60095461013b565b610273604051806060016040528060001515815260200160008152602001600081525090565b600083815260076020526040902080548390811061029357610293611cd5565b6000918252602091829020604080516060810182526003909302909101805460ff16151583526001810154938301939093526002909201549181019190915290505b92915050565b6102e3611559565b600980549060006102f383611d01565b9190505550610315610310600354856115b390919063ffffffff16565b6115c6565b60058290556040516376c8889f60e01b81526001600160a01b037f000000000000000000000000000000000000000000000000000000000000000016906376c8889f906103689084908690600401611d1a565b600060405180830381600087803b15801561038257600080fd5b505af1158015610396573d6000803e3d6000fd5b505050507f10797956d670d610ef7d098cc28231e7a01e56c8e195dba780fc1be47e60c7fa826040516103cb91815260200190565b60405180910390a1505050565b33600090815260086020908152604080832060095484529091529020541561052357336000908152600860209081526040808320600954845290915281206002015481905b6009546000908152600760205260409020548110156104f357600954600090815260076020526040902080548290811061045957610459611cd5565b600091825260209091206003909102015460ff166104825761047b8284611645565b9150610492565b61048c3382611651565b92508291505b33600090815260086020908152604080832060095484529091529020600101546104bc9083611645565b33600090815260086020908152604080832060095484529091528120600101919091559150806104eb81611d01565b91505061041d565b50506009546000818152600760209081526040808320543384526008835281842094845293909152902060020155505b3360008181526008602090815260408083206009548452909152908190206001015490517ff8fbd93f54ff83ef0ac6fcbbf374a86c01549466519c90588609a945acdc4e8c926105769290914290611d6b565b60405180910390a1565b33600090815260086020908152604080832060095484529091529020600101546105f15760405162461bcd60e51b815260206004820152601960248201527f6d73672e73656e64657220726577617264206973207a65726f0000000000000060448201526064015b60405180910390fd5b3360008181526008602090815260408083206009548452909152812060010180549190559061064b906001600160a01b037f00000000000000000000000000000000000000000000000000000000000000001690836116f7565b7f51730a1d9334940951b5fce420330429cb0e33a25972c4ce8019419fe0d02dd333824260405161067e93929190611d6b565b60405180910390a150565b610691611559565b61069b600061175f565b565b6106a56117af565b80600954116106d05760405162461bcd60e51b815260206004820152600060248201526044016105e8565b3360009081526008602090815260408083208484529091529020546107115760405162461bcd60e51b815260206004820152600060248201526044016105e8565b3360008181526008602090815260408083208584529091528120805491905590610766906001600160a01b037f00000000000000000000000000000000000000000000000000000000000000001690836116f7565b7f92fd59bf4d51ab5ee264b4a72897d060338163cba51d5541d01556ade40e16d633824260405161079993929190611d6b565b60405180910390a1506107ab60018055565b50565b6107b66117af565b336000908152600860209081526040808320600954845290915290205481111561083c5760405162461bcd60e51b815260206004820152603160248201527f756e7374616b696e6720616d6f756e74206d757374206265206d6f7265207468604482015270185b881c995c5d595cdd08185b5bdd5b9d607a1b60648201526084016105e8565b6000811161089c5760405162461bcd60e51b815260206004820152602760248201527f756e7374616b696e6720616d6f756e74206d757374206265206d6f7265207468604482015266616e207a65726f60c81b60648201526084016105e8565b6006546108a99082611808565b600655600454600554600091906108c09042611d8c565b6108ca9190611d9f565b33600090815260086020908152604080832060095484529091529020600201549091508190036109bb57336000908152600860209081526040808320600954845290915290205461091b9083611808565b33600090815260086020908152604080832060098054855290835281842094909455925482526007905220805461097e9184918490811061095e5761095e611cd5565b90600052602060002090600302016001015461180890919063ffffffff16565b60095460009081526007602052604090208054839081106109a1576109a1611cd5565b906000526020600020906003020160010181905550610bbc565b60095460009081526007602052604081208054829190849081106109e1576109e1611cd5565b6000918252602082206003909102015460ff1615159003610a805760016007600060095481526020019081526020016000208481548110610a2457610a24611cd5565b60009182526020808320600392909202909101805460ff1916931515939093179092556006546009548252600790925260409020805485908110610a6a57610a6a611cd5565b9060005260206000209060030201600101819055505b33600090815260086020908152604080832060095484529091529020600201545b83811015610b66576009546000908152600760205260409020805482908110610acc57610acc611cd5565b600091825260209091206003909102015460ff16610af557610aee8284611645565b9150610b05565b610aff3382611651565b92508291505b3360009081526008602090815260408083206009548452909152902060010154610b2f9083611645565b3360009081526008602090815260408083206009548452909152812060010191909155915080610b5e81611d01565b915050610aa1565b503360009081526008602090815260408083206009548452909152902054610b8e9085611808565b3360009081526008602090815260408083206009805485529252808320939093555481522060020183905550505b33600090815260086020908152604080832060095484529091528120549003610c84576001600160a01b037f00000000000000000000000000000000000000000000000000000000000000001663e6cc378833610c1a856064611dc1565b6040516001600160e01b031960e085901b1681526001600160a01b039092166004830152602482015260016044820152606401600060405180830381600087803b158015610c6757600080fd5b505af1158015610c7b573d6000803e3d6000fd5b50505050610d25565b6001600160a01b037f00000000000000000000000000000000000000000000000000000000000000001663e6cc378833610cbf856064611dc1565b6040516001600160e01b031960e085901b1681526001600160a01b039092166004830152602482015260006044820152606401600060405180830381600087803b158015610d0c57600080fd5b505af1158015610d20573d6000803e3d6000fd5b505050505b610d596001600160a01b037f00000000000000000000000000000000000000000000000000000000000000001633846116f7565b7f7d1fe0dfa3d288debbb2331adffff1aa0570080df0816f2a64838e7595980b1b33834260405161079993929190611d6b565b6000806000429050600060045460055483610da79190611d8c565b610db19190611d9f565b6001600160a01b03861660009081526008602090815260408083206009548452909152902060020154909150811115610e90576001600160a01b038516600090815260086020908152604080832060095484529091528120600201545b82811015610e8d576009546000908152600760205260409020805482908110610e3957610e39611cd5565b600091825260209091206003909102015460ff16610e6257610e5b8583611645565b9450610e7b565b610e6c8782611651565b9150610e788583611645565b94505b80610e8581611d01565b915050610e0e565b50505b6001600160a01b03851660009081526008602090815260408083206009548452909152902060010154610ec4908490611645565b95945050505050565b610ed5611559565b7f00000000000000000000000000000000000000000000000000000000000000006001600160a01b03166398f6560b6040518163ffffffff1660e01b8152600401600060405180830381600087803b158015610f3057600080fd5b505af1158015610f44573d6000803e3d6000fd5b505050507fd193c8fe0cb0f1fc5878d054b997bca70ba8241af2db66543fe1079c9d8bb67c4260405161057691815260200190565b610f816117af565b42610fb76001600160a01b037f000000000000000000000000000000000000000000000000000000000000000016333086611814565b600060045460055483610fca9190611d8c565b610fd49190611d9f565b90506007600060095481526020019081526020016000208181548110610ffc57610ffc611cd5565b6000918252602082206003909102015460ff161515900361109b576001600760006009548152602001908152602001600020828154811061103f5761103f611cd5565b60009182526020808320600392909202909101805460ff191693151593909317909255600654600954825260079092526040902080548390811061108557611085611cd5565b9060005260206000209060030201600101819055505b33600090815260086020908152604080832060095484529091528120549003611194576111088460076000600954815260200190815260200160002083815481106110e8576110e8611cd5565b90600052602060002090600302016001015461164590919063ffffffff16565b600954600090815260076020526040902080548390811061112b5761112b611cd5565b600091825260208083206003929092029091016001019290925533815260088252604080822060098054845293528082206002018490559154815220546111729085611645565b336000908152600860209081526040808320600954845290915290205561136c565b33600090815260086020908152604080832060095484529091529020600201548111156112c957336000908152600860209081526040808320600954845290915281206002015481905b838110156112a357600954600090815260076020526040902080548290811061120957611209611cd5565b600091825260209091206003909102015460ff166112325761122b8284611645565b9150611242565b61123c3382611651565b92508291505b336000908152600860209081526040808320600954845290915290206001015461126c9083611645565b336000908152600860209081526040808320600954845290915281206001019190915591508061129b81611d01565b9150506111de565b505033600090815260086020908152604080832060095484529091529020600201829055505b33600090815260086020908152604080832060095484529091529020546112f09085611645565b336000908152600860209081526040808320600980548552908352818420949094559254825260079052208054611333918691849081106110e8576110e8611cd5565b600954600090815260076020526040902080548390811061135657611356611cd5565b9060005260206000209060030201600101819055505b6006546113799085611645565b6006556001600160a01b037f00000000000000000000000000000000000000000000000000000000000000001663569def62336113b7876064611dc1565b856040518463ffffffff1660e01b81526004016113d693929190611d6b565b600060405180830381600087803b1580156113f057600080fd5b505af1158015611404573d6000803e3d6000fd5b505050507fadc51bb2f1e9e33d5a3cd4d425f604fb22092ca515c46663e7432c50f95809de33858460405161143b93929190611d6b565b60405180910390a1505061144e60018055565b5050565b606060076000838152602001908152602001600020805480602002602001604051908101604052809291908181526020016000905b828210156114d85760008481526020908190206040805160608101825260038602909201805460ff161515835260018082015484860152600290910154918301919091529083529092019101611487565b505050509050919050565b6114eb611559565b6001600160a01b0381166115505760405162461bcd60e51b815260206004820152602660248201527f4f776e61626c653a206e6577206f776e657220697320746865207a65726f206160448201526564647265737360d01b60648201526084016105e8565b6107ab8161175f565b6000546001600160a01b0316331461069b5760405162461bcd60e51b815260206004820181905260248201527f4f776e61626c653a2063616c6c6572206973206e6f7420746865206f776e657260448201526064016105e8565b60006115bf8284611d9f565b9392505050565b60005b60035481101561144e5760408051606081018252600080825260208083018281528385018781526009548452600783529483208054600180820183559185529290932093516003909202909301805460ff191691151591909117815591519082015590516002909101558061163d81611d01565b9150506115c9565b60006115bf8284611dd8565b600954600090815260076020526040812080546115bf91908490811061167957611679611cd5565b9060005260206000209060030201600101546116f160076000600954815260200190815260200160002085815481106116b4576116b4611cd5565b60009182526020808320600260039093020191909101546001600160a01b0389168352600882526040808420600954855290925291205490611852565b906115b3565b6040516001600160a01b03831660248201526044810182905261175a90849063a9059cbb60e01b906064015b60408051601f198184030181529190526020810180516001600160e01b03166001600160e01b03199093169290921790915261185e565b505050565b600080546001600160a01b038381166001600160a01b0319831681178455604051919092169283917f8be0079c531659141344cd1fd0a4f28419497f9722a3daafe3b4186f6b6457e09190a35050565b6002600154036118015760405162461bcd60e51b815260206004820152601f60248201527f5265656e7472616e637947756172643a207265656e7472616e742063616c6c0060448201526064016105e8565b6002600155565b60006115bf8284611d8c565b6040516001600160a01b038085166024830152831660448201526064810182905261184c9085906323b872dd60e01b90608401611723565b50505050565b60006115bf8284611dc1565b60006118b3826040518060400160405280602081526020017f5361666545524332303a206c6f772d6c6576656c2063616c6c206661696c6564815250856001600160a01b03166119309092919063ffffffff16565b80519091501561175a57808060200190518101906118d19190611deb565b61175a5760405162461bcd60e51b815260206004820152602a60248201527f5361666545524332303a204552433230206f7065726174696f6e20646964206e6044820152691bdd081cdd58d8d9595960b21b60648201526084016105e8565b606061193f8484600085611947565b949350505050565b6060824710156119a85760405162461bcd60e51b815260206004820152602660248201527f416464726573733a20696e73756666696369656e742062616c616e636520666f6044820152651c8818d85b1b60d21b60648201526084016105e8565b600080866001600160a01b031685876040516119c49190611e31565b60006040518083038185875af1925050503d8060008114611a01576040519150601f19603f3d011682016040523d82523d6000602084013e611a06565b606091505b5091509150611a1787838387611a22565b979650505050505050565b60608315611a91578251600003611a8a576001600160a01b0385163b611a8a5760405162461bcd60e51b815260206004820152601d60248201527f416464726573733a2063616c6c20746f206e6f6e2d636f6e747261637400000060448201526064016105e8565b508161193f565b61193f8383815115611aa65781518083602001fd5b8060405162461bcd60e51b81526004016105e89190611e4d565b80356001600160a01b0381168114611ad757600080fd5b919050565b600060208284031215611aee57600080fd5b6115bf82611ac0565b60008060408385031215611b0a57600080fd5b50508035926020909101359150565b8151151581526020808301519082015260408083015190820152606081016102d5565b634e487b7160e01b600052604160045260246000fd5b600080600060608486031215611b6757600080fd5b833592506020808501359250604085013567ffffffffffffffff80821115611b8e57600080fd5b818701915087601f830112611ba257600080fd5b813581811115611bb457611bb4611b3c565b8060051b604051601f19603f83011681018181108582111715611bd957611bd9611b3c565b60405291825284820192508381018501918a831115611bf757600080fd5b938501935b82851015611c1c57611c0d85611ac0565b84529385019392850192611bfc565b8096505050505050509250925092565b600060208284031215611c3e57600080fd5b5035919050565b60008060408385031215611c5857600080fd5b82359150611c6860208401611ac0565b90509250929050565b6020808252825182820181905260009190848201906040850190845b81811015611cc957611cb683855180511515825260208082015190830152604090810151910152565b9284019260609290920191600101611c8d565b50909695505050505050565b634e487b7160e01b600052603260045260246000fd5b634e487b7160e01b600052601160045260246000fd5b600060018201611d1357611d13611ceb565b5060010190565b604080825283519082018190526000906020906060840190828701845b82811015611d5c5781516001600160a01b031684529284019290840190600101611d37565b50505092019290925292915050565b6001600160a01b039390931683526020830191909152604082015260600190565b818103818111156102d5576102d5611ceb565b600082611dbc57634e487b7160e01b600052601260045260246000fd5b500490565b80820281158282048414176102d5576102d5611ceb565b808201808211156102d5576102d5611ceb565b600060208284031215611dfd57600080fd5b815180151581146115bf57600080fd5b60005b83811015611e28578181015183820152602001611e10565b50506000910152565b60008251611e43818460208701611e0d565b9190910192915050565b6020815260008251806020840152611e6c816040850160208701611e0d565b601f01601f1916919091016040019291505056fea26469706673582212201836858129d55d044bcb6e3d7ac630df6ab414b175b44de165f4a511925baddf64736f6c63430008110033",
  "linkReferences": {},
  "deployedLinkReferences": {}
}