{
  "_format": "hh-sol-artifact-1",
  "contractName": "ADFVoting",
  "sourceName": "contracts/defi/Launchpad/voting.sol",
  "abi": [
    {
      "inputs": [
        {
          "internalType": "contract IERC20",
          "name": "_token",
          "type": "address"
        }
      ],
      "stateMutability": "nonpayable",
      "type": "constructor"
    },
    {
      "anonymous": false,
      "inputs": [
        {
          "indexed": true,
          "internalType": "address",
          "name": "previousOwner",
          "type": "address"
        },
        {
          "indexed": true,
          "internalType": "address",
          "name": "newOwner",
          "type": "address"
        }
      ],
      "name": "OwnershipTransferred",
      "type": "event"
    },
    {
      "anonymous": false,
      "inputs": [
        {
          "indexed": false,
          "internalType": "address",
          "name": "bestArtistAddress",
          "type": "address"
        },
        {
          "indexed": false,
          "internalType": "uint256",
          "name": "bestArtistAmount",
          "type": "uint256"
        },
        {
          "indexed": false,
          "internalType": "uint256",
          "name": "endTime",
          "type": "uint256"
        }
      ],
      "name": "endProposalEvent",
      "type": "event"
    },
    {
      "anonymous": false,
      "inputs": [
        {
          "indexed": false,
          "internalType": "address",
          "name": "user",
          "type": "address"
        },
        {
          "indexed": false,
          "internalType": "uint256",
          "name": "minusAmount",
          "type": "uint256"
        },
        {
          "indexed": false,
          "internalType": "uint256",
          "name": "time",
          "type": "uint256"
        }
      ],
      "name": "setMinusVPEvent",
      "type": "event"
    },
    {
      "anonymous": false,
      "inputs": [
        {
          "indexed": false,
          "internalType": "address",
          "name": "user",
          "type": "address"
        },
        {
          "indexed": false,
          "internalType": "uint256",
          "name": "accAmount",
          "type": "uint256"
        },
        {
          "indexed": false,
          "internalType": "uint256",
          "name": "amountPerHour",
          "type": "uint256"
        },
        {
          "indexed": false,
          "internalType": "uint256",
          "name": "time",
          "type": "uint256"
        }
      ],
      "name": "setPendingVPEvent",
      "type": "event"
    },
    {
      "anonymous": false,
      "inputs": [
        {
          "indexed": false,
          "internalType": "address[]",
          "name": "artists",
          "type": "address[]"
        },
        {
          "indexed": false,
          "internalType": "uint256",
          "name": "roundId",
          "type": "uint256"
        },
        {
          "indexed": false,
          "internalType": "uint256",
          "name": "startVotingTime",
          "type": "uint256"
        }
      ],
      "name": "startProposalEvent",
      "type": "event"
    },
    {
      "anonymous": false,
      "inputs": [
        {
          "indexed": false,
          "internalType": "uint256",
          "name": "round",
          "type": "uint256"
        },
        {
          "indexed": false,
          "internalType": "uint256",
          "name": "endTime",
          "type": "uint256"
        }
      ],
      "name": "votingEndEvent",
      "type": "event"
    },
    {
      "anonymous": false,
      "inputs": [
        {
          "indexed": false,
          "internalType": "address",
          "name": "msgSender",
          "type": "address"
        },
        {
          "indexed": false,
          "internalType": "address",
          "name": "artist",
          "type": "address"
        },
        {
          "indexed": false,
          "internalType": "uint256",
          "name": "amount",
          "type": "uint256"
        },
        {
          "indexed": false,
          "internalType": "address",
          "name": "bestArtist",
          "type": "address"
        },
        {
          "indexed": false,
          "internalType": "uint256",
          "name": "bestArtistAmount",
          "type": "uint256"
        },
        {
          "indexed": false,
          "internalType": "uint256",
          "name": "time",
          "type": "uint256"
        }
      ],
      "name": "votingEvent",
      "type": "event"
    },
    {
      "anonymous": false,
      "inputs": [
        {
          "indexed": false,
          "internalType": "address",
          "name": "user",
          "type": "address"
        },
        {
          "indexed": false,
          "internalType": "uint256",
          "name": "rewardAmount",
          "type": "uint256"
        },
        {
          "indexed": false,
          "internalType": "uint256",
          "name": "lastLP",
          "type": "uint256"
        },
        {
          "indexed": false,
          "internalType": "uint256",
          "name": "time",
          "type": "uint256"
        }
      ],
      "name": "votingRewardClaimEvent",
      "type": "event"
    },
    {
      "anonymous": false,
      "inputs": [
        {
          "indexed": false,
          "internalType": "uint256",
          "name": "round",
          "type": "uint256"
        },
        {
          "indexed": false,
          "internalType": "uint256",
          "name": "startTime",
          "type": "uint256"
        }
      ],
      "name": "votingStartEvent",
      "type": "event"
    },
    {
      "inputs": [],
      "name": "StakingAddress",
      "outputs": [
        {
          "internalType": "address",
          "name": "",
          "type": "address"
        }
      ],
      "stateMutability": "view",
      "type": "function"
    },
    {
      "inputs": [
        {
          "internalType": "address",
          "name": "_user",
          "type": "address"
        },
        {
          "internalType": "uint256",
          "name": "_amount",
          "type": "uint256"
        },
        {
          "internalType": "uint256",
          "name": "_stakingTime",
          "type": "uint256"
        }
      ],
      "name": "_calStakingVPAmount",
      "outputs": [
        {
          "internalType": "uint256",
          "name": "",
          "type": "uint256"
        },
        {
          "internalType": "uint256",
          "name": "",
          "type": "uint256"
        },
        {
          "internalType": "bool",
          "name": "",
          "type": "bool"
        }
      ],
      "stateMutability": "view",
      "type": "function"
    },
    {
      "inputs": [
        {
          "internalType": "address",
          "name": "_user",
          "type": "address"
        },
        {
          "internalType": "uint256",
          "name": "_proposalId",
          "type": "uint256"
        },
        {
          "internalType": "uint256",
          "name": "_currentTime",
          "type": "uint256"
        }
      ],
      "name": "calVPAmount",
      "outputs": [
        {
          "internalType": "uint256",
          "name": "",
          "type": "uint256"
        }
      ],
      "stateMutability": "view",
      "type": "function"
    },
    {
      "inputs": [],
      "name": "endProposal",
      "outputs": [],
      "stateMutability": "nonpayable",
      "type": "function"
    },
    {
      "inputs": [
        {
          "internalType": "uint256",
          "name": "_proposalId",
          "type": "uint256"
        }
      ],
      "name": "getArtistInfoById",
      "outputs": [
        {
          "internalType": "address[]",
          "name": "",
          "type": "address[]"
        },
        {
          "internalType": "uint256[]",
          "name": "",
          "type": "uint256[]"
        }
      ],
      "stateMutability": "view",
      "type": "function"
    },
    {
      "inputs": [
        {
          "internalType": "uint256",
          "name": "_proposalId",
          "type": "uint256"
        }
      ],
      "name": "getProposalInfo",
      "outputs": [
        {
          "components": [
            {
              "internalType": "bool",
              "name": "isVoting",
              "type": "bool"
            },
            {
              "internalType": "address[]",
              "name": "artists",
              "type": "address[]"
            },
            {
              "internalType": "address",
              "name": "bestArtist",
              "type": "address"
            },
            {
              "internalType": "uint256",
              "name": "bestArtistAmount",
              "type": "uint256"
            },
            {
              "internalType": "uint256",
              "name": "totalVotingAmount",
              "type": "uint256"
            },
            {
              "internalType": "uint256",
              "name": "votingStartTime",
              "type": "uint256"
            },
            {
              "internalType": "uint256",
              "name": "proposalStartTime",
              "type": "uint256"
            },
            {
              "internalType": "uint256",
              "name": "proposalEndTime",
              "type": "uint256"
            }
          ],
          "internalType": "struct IVoting.ProposalInfo",
          "name": "",
          "type": "tuple"
        }
      ],
      "stateMutability": "view",
      "type": "function"
    },
    {
      "inputs": [
        {
          "internalType": "address",
          "name": "_user",
          "type": "address"
        },
        {
          "internalType": "uint256",
          "name": "_vpAmount",
          "type": "uint256"
        }
      ],
      "name": "getUserExpectedVPAmount",
      "outputs": [
        {
          "internalType": "uint256",
          "name": "",
          "type": "uint256"
        }
      ],
      "stateMutability": "view",
      "type": "function"
    },
    {
      "inputs": [
        {
          "internalType": "address",
          "name": "_user",
          "type": "address"
        }
      ],
      "name": "getUserTotalVotingReward",
      "outputs": [
        {
          "internalType": "uint256",
          "name": "",
          "type": "uint256"
        }
      ],
      "stateMutability": "view",
      "type": "function"
    },
    {
      "inputs": [
        {
          "internalType": "address",
          "name": "_user",
          "type": "address"
        }
      ],
      "name": "getUserVPAmount",
      "outputs": [
        {
          "internalType": "uint256",
          "name": "",
          "type": "uint256"
        }
      ],
      "stateMutability": "view",
      "type": "function"
    },
    {
      "inputs": [
        {
          "internalType": "address",
          "name": "_user",
          "type": "address"
        }
      ],
      "name": "getUserVPInfo",
      "outputs": [
        {
          "components": [
            {
              "internalType": "uint256",
              "name": "vpAmount",
              "type": "uint256"
            },
            {
              "internalType": "uint256",
              "name": "calProposal",
              "type": "uint256"
            }
          ],
          "internalType": "struct IVoting.UserVPAmountInfo",
          "name": "",
          "type": "tuple"
        }
      ],
      "stateMutability": "view",
      "type": "function"
    },
    {
      "inputs": [
        {
          "internalType": "address",
          "name": "_user",
          "type": "address"
        },
        {
          "internalType": "uint256",
          "name": "_proposalId",
          "type": "uint256"
        }
      ],
      "name": "getUserVotingRewardById",
      "outputs": [
        {
          "internalType": "uint256",
          "name": "",
          "type": "uint256"
        }
      ],
      "stateMutability": "view",
      "type": "function"
    },
    {
      "inputs": [
        {
          "internalType": "address",
          "name": "_user",
          "type": "address"
        }
      ],
      "name": "getVoteUserInfo",
      "outputs": [
        {
          "components": [
            {
              "internalType": "bool",
              "name": "calComplete",
              "type": "bool"
            },
            {
              "internalType": "uint256",
              "name": "vpMintPerHour",
              "type": "uint256"
            },
            {
              "internalType": "uint256",
              "name": "accVPAmount",
              "type": "uint256"
            },
            {
              "internalType": "uint256",
              "name": "maxVPAmount",
              "type": "uint256"
            },
            {
              "internalType": "uint256",
              "name": "lastAccTime",
              "type": "uint256"
            },
            {
              "internalType": "uint256",
              "name": "rewardAmount",
              "type": "uint256"
            },
            {
              "internalType": "bool",
              "name": "rewardWithdrawn",
              "type": "bool"
            }
          ],
          "internalType": "struct IVoting.UserInfo",
          "name": "",
          "type": "tuple"
        }
      ],
      "stateMutability": "view",
      "type": "function"
    },
    {
      "inputs": [
        {
          "internalType": "address",
          "name": "_user",
          "type": "address"
        },
        {
          "internalType": "uint256",
          "name": "_proposalId",
          "type": "uint256"
        }
      ],
      "name": "getVoteUserInfoById",
      "outputs": [
        {
          "components": [
            {
              "internalType": "bool",
              "name": "calComplete",
              "type": "bool"
            },
            {
              "internalType": "uint256",
              "name": "vpMintPerHour",
              "type": "uint256"
            },
            {
              "internalType": "uint256",
              "name": "accVPAmount",
              "type": "uint256"
            },
            {
              "internalType": "uint256",
              "name": "maxVPAmount",
              "type": "uint256"
            },
            {
              "internalType": "uint256",
              "name": "lastAccTime",
              "type": "uint256"
            },
            {
              "internalType": "uint256",
              "name": "rewardAmount",
              "type": "uint256"
            },
            {
              "internalType": "bool",
              "name": "rewardWithdrawn",
              "type": "bool"
            }
          ],
          "internalType": "struct IVoting.UserInfo",
          "name": "",
          "type": "tuple"
        }
      ],
      "stateMutability": "view",
      "type": "function"
    },
    {
      "inputs": [],
      "name": "owner",
      "outputs": [
        {
          "internalType": "address",
          "name": "",
          "type": "address"
        }
      ],
      "stateMutability": "view",
      "type": "function"
    },
    {
      "inputs": [],
      "name": "renounceOwnership",
      "outputs": [],
      "stateMutability": "nonpayable",
      "type": "function"
    },
    {
      "inputs": [
        {
          "internalType": "address",
          "name": "_user",
          "type": "address"
        },
        {
          "internalType": "uint256",
          "name": "_minusVPAmount",
          "type": "uint256"
        },
        {
          "internalType": "uint256",
          "name": "_proposalId",
          "type": "uint256"
        },
        {
          "internalType": "bool",
          "name": "_fullUnstaking",
          "type": "bool"
        }
      ],
      "name": "setMinusVP",
      "outputs": [],
      "stateMutability": "nonpayable",
      "type": "function"
    },
    {
      "inputs": [
        {
          "internalType": "address",
          "name": "_user",
          "type": "address"
        },
        {
          "internalType": "uint256",
          "name": "_totalVPAmount",
          "type": "uint256"
        },
        {
          "internalType": "uint256",
          "name": "_stakingTime",
          "type": "uint256"
        }
      ],
      "name": "setPendingVP",
      "outputs": [],
      "stateMutability": "nonpayable",
      "type": "function"
    },
    {
      "inputs": [
        {
          "internalType": "address",
          "name": "_stakingAddr",
          "type": "address"
        }
      ],
      "name": "setStakingAddr",
      "outputs": [],
      "stateMutability": "nonpayable",
      "type": "function"
    },
    {
      "inputs": [
        {
          "internalType": "address[]",
          "name": "_artists",
          "type": "address[]"
        },
        {
          "internalType": "uint256",
          "name": "_startProposalTime",
          "type": "uint256"
        },
        {
          "internalType": "uint256",
          "name": "_endProposalTime",
          "type": "uint256"
        },
        {
          "internalType": "uint256",
          "name": "_startVotingTime",
          "type": "uint256"
        }
      ],
      "name": "startProposal",
      "outputs": [],
      "stateMutability": "nonpayable",
      "type": "function"
    },
    {
      "inputs": [
        {
          "internalType": "address",
          "name": "newOwner",
          "type": "address"
        }
      ],
      "name": "transferOwnership",
      "outputs": [],
      "stateMutability": "nonpayable",
      "type": "function"
    },
    {
      "inputs": [
        {
          "internalType": "address",
          "name": "_artist",
          "type": "address"
        },
        {
          "internalType": "uint256",
          "name": "_vpAmount",
          "type": "uint256"
        }
      ],
      "name": "voting",
      "outputs": [],
      "stateMutability": "nonpayable",
      "type": "function"
    },
    {
      "inputs": [],
      "name": "votingRewardClaim",
      "outputs": [],
      "stateMutability": "nonpayable",
      "type": "function"
    }
  ],
  "bytecode": "0x60a0604052610258600255600a6003553480156200001c57600080fd5b5060405162002981380380620029818339810160408190526200003f91620000b0565b6200004a3362000060565b600180556001600160a01b0316608052620000e2565b600080546001600160a01b038381166001600160a01b0319831681178455604051919092169283917f8be0079c531659141344cd1fd0a4f28419497f9722a3daafe3b4186f6b6457e09190a35050565b600060208284031215620000c357600080fd5b81516001600160a01b0381168114620000db57600080fd5b9392505050565b608051612883620000fe60003960006105f301526128836000f3fe608060405234801561001057600080fd5b50600436106101425760003560e01c80637e764125116100b857806398f6560b1161007c57806398f6560b1461035c578063bc903cb814610364578063c16bbdb514610384578063c1b7249914610397578063d3cca940146103b8578063f2fde38b146103cb57600080fd5b80637e764125146102ce57806388f15475146102fe5780638da5cb5b146103115780638eebec7914610336578063953fb4fb1461034957600080fd5b8063446892181161010a578063446892181461020a578063569def621461027a57806364becef91461028d5780636cc4011b146102a0578063715018a6146102b35780637b48e87c146102bb57600080fd5b806304cd56ed146101475780631c26d804146101515780631f7a8d6b1461017757806321537988146101e45780632f558a8f146101f7575b600080fd5b61014f6103de565b005b61016461015f366004612388565b61066e565b6040519081526020015b60405180910390f35b61018a610185366004612388565b610806565b60405161016e9190600060e0820190508251151582526020830151602083015260408301516040830152606083015160608301526080830151608083015260a083015160a083015260c0830151151560c083015292915050565b6101646101f23660046123a3565b6108c9565b61014f6102053660046123a3565b61095c565b61025f610218366004612388565b6040805180820190915260008082526020820152506001600160a01b03166000908152600b6020908152604091829020825180840190935280548352600101549082015290565b6040805182518152602092830151928101929092520161016e565b61014f6102883660046123cd565b610e5d565b61016461029b3660046123a3565b61111f565b61018a6102ae3660046123a3565b611231565b61014f6112f2565b61014f6102c936600461240e565b611306565b6102e16102dc3660046123cd565b611385565b60408051938452602084019290925215159082015260600161016e565b61014f61030c36600461246c565b6114c5565b6000546001600160a01b03165b6040516001600160a01b03909116815260200161016e565b610164610344366004612388565b611633565b60045461031e906001600160a01b031681565b61014f6116e2565b610377610372366004612547565b61177a565b60405161016e9190612560565b6101646103923660046123cd565b61189e565b6103aa6103a5366004612547565b61195b565b60405161016e929190612658565b61014f6103c6366004612388565b611ad1565b61014f6103d9366004612388565b611afb565b600e54600090815260056020526040902060070154421080156104035750600e546001145b1561042f5760405162461bcd60e51b815260206004820152600060248201526044015b60405180910390fd5b336000908152600c6020526040812054819080820361044c575060015b600e5460009081526005602052604090206007015442111561047257600e549150610484565b6001600e5461048191906126c5565b91505b805b8281116105ce5760008181526005602090815260408083206002810154600390910154600a84528285203380875290855283862054878752600986528487206001600160a01b03909416808852939095529290942080549194939291839081106104f2576104f26126d8565b60009182526020909120600290910201546001600160a01b0316036105b8576000848152600d6020908152604080832054600983528184206001600160a01b0388168552909252909120805461057e9285926105789286908110610558576105586126d8565b906000526020600020906002020160010154611b7490919063ffffffff16565b90611b80565b60008581526006602081815260408084203385529091529091206005810183905501805460ff191660011790556105b590886126ee565b96505b50505080806105c690612701565b915050610486565b506105da8260016126ee565b336000818152600c6020526040902091909155610622907f00000000000000000000000000000000000000000000000000000000000000006001600160a01b03169085611b8c565b60408051338152602081018590529081018390524260608201527ffa38d1cb12f8908cda851031e0d09fcfcaeb6fc1f331aca551389036ba334d8d9060800160405180910390a1505050565b6001600160a01b0381166000908152600c602052604081205481908190808203610696575060015b600e54600090815260056020526040902060070154421080156106bb5750600e546001145b156106cb57506000949350505050565b600e546000908152600560205260409020600701544211156106f157600e549250610703565b6001600e5461070091906126c5565b92505b805b8381116107fc5760008181526005602090815260408083206002810154600390910154600a84528285206001600160a01b038c8116808852918652848720548888526009875285882091909416808852955292909420805493949391929183908110610773576107736126d8565b60009182526020909120600290910201546001600160a01b0316036107e6576000848152600d6020908152604080832054600983528184206001600160a01b038816855290925290912080546107d99285926105789286908110610558576105586126d8565b6107e390876126ee565b95505b50505080806107f490612701565b915050610705565b5090949350505050565b61084a6040518060e0016040528060001515815260200160008152602001600081526020016000815260200160008152602001600081526020016000151581525090565b50600e5460009081526006602081815260408084206001600160a01b03909516845293815291839020835160e081018552815460ff908116151582526001830154948201949094526002820154948101949094526003810154606085015260048101546080850152600581015460a0850152015416151560c082015290565b600e5460009081526006602090815260408083206001600160a01b03861684529091528120600301548190819081906109039086906126ee565b915061091a60035483611b8090919063ffffffff16565b90506109508161094a6002544260056000600e5481526020019081526020016000206007015461057891906126c5565b90611b74565b93505050505b92915050565b61096582611be3565b6109b15760405162461bcd60e51b815260206004820152601c60248201527f766f74696e672061727469737420646f6573206e6f74206578697374000000006044820152606401610426565b600042905060006109c533600e548461189e565b905080156109f057600e54600090815260066020908152604080832033845290915290206004018290555b600e54336000908152600b602052604090206001015414610aa957336000818152600b6020908152604080832060010154835260068252808320938352929052205460ff16610a9257610a5b610a4533611c7a565b336000908152600b602052604090205490611d49565b336000818152600b6020908152604080832094855560019485015483526006825280832093835292905220805460ff191690911790555b600e54336000908152600b60205260409020600101555b336000908152600b6020526040902054610ac39082611d49565b336000908152600b60205260409020819055610b075760405162461bcd60e51b815260206004820152600360248201526231323360e81b6044820152606401610426565b336000908152600b60205260409020548310610b4e5760405162461bcd60e51b8152600401610426906020808252600490820152630c4c8ccd60e21b604082015260600190565b600e5460009081526008602090815260408083206001600160a01b0388168452909152902054610b7e9084611d49565b600e5460009081526008602090815260408083206001600160a01b0389168452825280832093909355338252600b90522054610bba9084611d55565b336000818152600b6020526040812092909255610bd79086611d61565b1115610c5457600e5460008181526009602090815260408083206001600160a01b03891684528252808320938352600a82528083203384529091529020548154859291908110610c2957610c296126d8565b90600052602060002090600202016001016000828254610c4991906126ee565b90915550610ceb9050565b604080518082018252338082526020808301878152600e8054600081815260098086528882206001600160a01b038e81168085529188528a842054948452600a88528a842098845297875289832093909355925481529184528682209082528352948520805460018082018355918752929095209351600290920290930180546001600160a01b0319169190921617815590519101555b600e546000908152600560205260409020600201546001600160a01b03808616911603610d4b57600e5460008181526008602090815260408083206001600160a01b03891684528252808320549383526005909152902060030155610dda565b600e54600090815260056020908152604080832060030154600883528184206001600160a01b0389168552909252909120541115610dda57600e8054600090815260056020818152604080842060020180546001600160a01b0319166001600160a01b038b16908117909155945480855260088352818520958552948252808420549484529190529020600301555b600e54600090815260056020908152604091829020600281015460039091015483513381526001600160a01b03808a16948201949094529384018790529116606083015260808201524260a08201527f4ded5d5d399150a84cf4b6c0bc2ff6652d0b95f3d595ba5b09f3c336a2c102ec9060c0015b60405180910390a150505050565b6004546001600160a01b03163314610e875760405162461bcd60e51b81526004016104269061271a565b60008211610eb15760405162461bcd60e51b81526020600482015260006024820152604401610426565b6000806000610ec1868686611385565b600e805460009081526006602081815260408084206001600160a01b038f16808652908352818520600101899055945484529181528183209383529290925290812060030180549497509295509093508792610f1e9084906126ee565b90915550508015610f5557600e5460009081526006602090815260408083206001600160a01b038a16845290915290206004018490555b6001600160a01b0386166000908152600b6020526040902054610f789083611d49565b6001600160a01b0387166000908152600b602052604081209182556001909101549003610fbf57600e546001600160a01b0387166000908152600b60205260409020600101555b600e546001600160a01b0387166000908152600b6020526040902060010154146110a5576001600160a01b0386166000818152600b6020908152604080832060010154835260068252808320938352929052205460ff166110855761104561102687611c7a565b6001600160a01b0388166000908152600b602052604090205490611d49565b6001600160a01b0387166000818152600b6020908152604080832094855560019485015483526006825280832093835292905220805460ff191690911790555b600e546001600160a01b0387166000908152600b60205260409020600101555b600e5460009081526006602090815260408083206001600160a01b038a168085529083529281902060028101546001909101548251948552928401528201524260608201527f42a74e438a92dc5d40b80270e183ae5481b97dea8df2cadfb8b25f8e893c31249060800160405180910390a1505050505050565b600080600e54831115611136576000915050610956565b600083815260056020526040902060070154421015611159576000915050610956565b6000838152600a602090815260408083206001600160a01b038089168086529184528285205488865260058552838620600281015460039091015460098752858820919093168088529552929094208054929492859081106111bd576111bd6126d8565b60009182526020909120600290910201546001600160a01b031603611226576000868152600d6020908152604080832054600983528184206001600160a01b038716855290925290912080546112239284926105789288908110610558576105586126d8565b93505b509195945050505050565b6112756040518060e0016040528060001515815260200160008152602001600081526020016000815260200160008152602001600081526020016000151581525090565b5060009081526006602081815260408084206001600160a01b0395909516845293815291839020835160e081018552815460ff908116151582526001830154948201949094526002820154948101949094526003810154606085015260048101546080850152600581015460a0850152015416151560c082015290565b6112fa611e5f565b6113046000611eb9565b565b6004546001600160a01b031633146113305760405162461bcd60e51b81526004016104269061271a565b61133c84848484611f09565b604080516001600160a01b03861681526020810185905242918101919091527fab781eb4cd54f4cb8ab90337fd405df1a830abbfe44fa633274dcfe8d569ddda90606001610e4f565b600e5460009081526006602081815260408084206001600160a01b03881685528252808420815160e081018352815460ff9081161515825260018301549482019490945260028201549281019290925260038101546060830152600481015460808301819052600582015460a0840152930154909116151560c082015282918291829182918291829190156114a057600060025482608001518b61142991906126c5565b611433919061275f565b905080156114775760208201516001935061144e9082612781565b94508a826060015161146091906126ee565b935060035484611470919061275f565b955061149a565b8a826060015161148791906126ee565b935060035484611497919061275f565b95505b506114b4565b6003546114ad908b61275f565b9450600191505b509299919850919650945050505050565b6004546001600160a01b031633146114ef5760405162461bcd60e51b81526004016104269061271a565b600e80549060006114ff83612701565b9091555050600e80546000908152600d60209081526040808320678ac7230489e80000905580516101008101825260018082528184018a8152828401869052606083018690526080830186905260a0830188905260c083018a905260e083018990529554855260058452919093208351815460ff1916901515178155935180519394859490936115939385019201906122f7565b506040828101516002830180546001600160a01b0319166001600160a01b03909216919091179055606083015160038301556080830151600483015560a0830151600583015560c0830151600683015560e090920151600790910155600e5490517f40db76a69d55f488aefdd47c00101f90593b81a02302ad014b29f6626862520491611624918891908690612798565b60405180910390a15050505050565b600e546001600160a01b0382166000908152600b6020526040812060010154909182911461169e576001600160a01b0383166000818152600b6020908152604080832060010154835260068252808320938352929052205460ff1661169e5761169b83611c7a565b90505b6116ab83600e544261189e565b6116b590826126ee565b6001600160a01b0384166000908152600b60205260409020549091506116db9082611d49565b9392505050565b6004546001600160a01b0316331461170c5760405162461bcd60e51b81526004016104269061271a565b600e54600f819055600090815260056020908152604091829020600281015460039091015483516001600160a01b03909216825291810191909152428183015290517f4cc059e5f7a49f4f1e15038836ed89e2fc8ce5ec800fbf26ef949e2b97dae9249181900360600190a1565b6117cd6040518061010001604052806000151581526020016060815260200160006001600160a01b0316815260200160008152602001600081526020016000815260200160008152602001600081525090565b600082815260056020908152604091829020825161010081018452815460ff16151581526001820180548551818602810186019096528086529194929385810193929083018282801561184957602002820191906000526020600020905b81546001600160a01b0316815260019091019060200180831161182b575b505050918352505060028201546001600160a01b03166020820152600382015460408201526004820154606082015260058201546080820152600682015460a082015260079091015460c09091015292915050565b6000828152600560205260408120600701548211156118cc5760008381526005602052604090206007015491505b60025460008481526006602090815260408083206001600160a01b038916845290915281206004015490919061190290856126c5565b61190c919061275f565b9050806000036119205760009150506116db565b60008481526006602090815260408083206001600160a01b0389168452909152812060010154611951908390612781565b9695505050505050565b6000818152600560205260408120600101546060918291908167ffffffffffffffff81111561198c5761198c612456565b6040519080825280602002602001820160405280156119b5578160200160208202803683370190505b50905060008267ffffffffffffffff8111156119d3576119d3612456565b6040519080825280602002602001820160405280156119fc578160200160208202803683370190505b50905060005b83811015611ac5576000878152600560205260408120600101805483908110611a2d57611a2d6126d8565b9060005260206000200160009054906101000a90046001600160a01b0316905080848381518110611a6057611a606126d8565b6001600160a01b0392831660209182029290920181019190915260008a815260088252604080822093851682529290915220548351849084908110611aa757611aa76126d8565b60209081029190910101525080611abd81612701565b915050611a02565b50909590945092505050565b611ad9611e5f565b600480546001600160a01b0319166001600160a01b0392909216919091179055565b611b03611e5f565b6001600160a01b038116611b685760405162461bcd60e51b815260206004820152602660248201527f4f776e61626c653a206e6577206f776e657220697320746865207a65726f206160448201526564647265737360d01b6064820152608401610426565b611b7181611eb9565b50565b60006116db8284612781565b60006116db828461275f565b604080516001600160a01b038416602482015260448082018490528251808303909101815260649091019091526020810180516001600160e01b031663a9059cbb60e01b179052611bde908490612095565b505050565b6000805b600e54600090815260056020526040902060010154811015611c6b57826001600160a01b031660056000600e5481526020019081526020016000206001018281548110611c3657611c366126d8565b6000918252602090912001546001600160a01b031603611c595760019150611c6b565b80611c6381612701565b915050611be7565b5080611c75575060005b919050565b6001600160a01b0381166000908152600b60205260408120600101548103611ca457506000919050565b600e546001600160a01b0383166000908152600b602052604090206001015403611cd057506000919050565b6001600160a01b0382166000818152600b6020908152604080832060010154835260068252808320938352929052205460ff1615611d1057506000919050565b6001600160a01b0382166000908152600b602090815260408083206001015480845260059092529091206007015461095691849161189e565b60006116db82846126ee565b60006116db82846126c5565b600e5460009081526009602090815260408083206001600160a01b03851684529091528120548103611d9557506000610956565b600e546000818152600a602090815260408083206001600160a01b0380891680865291845282852054958552600984528285209088168552909252909120805483908110611de557611de56126d8565b60009182526020909120600290910201546001600160a01b031603611e5557600e5460009081526009602090815260408083206001600160a01b03871684529091529020805482908110611e3b57611e3b6126d8565b906000526020600020906002020160010154915050610956565b6000915050610956565b6000546001600160a01b031633146113045760405162461bcd60e51b815260206004820181905260248201527f4f776e61626c653a2063616c6c6572206973206e6f7420746865206f776e65726044820152606401610426565b600080546001600160a01b038381166001600160a01b0319831681178455604051919092169283917f8be0079c531659141344cd1fd0a4f28419497f9722a3daafe3b4186f6b6457e09190a35050565b8015611f8a5760008281526006602090815260408083206001600160a01b0388168452909152812060018082018390556003820192909255805460ff19169091179055611f5784834261189e565b6001600160a01b0385166000908152600b602052604081208054909190611f7f9084906126ee565b9091555061208f9050565b6000611f9785844261189e565b6001600160a01b0386166000908152600b6020526040812080549293508392909190611fc49084906126ee565b90915550508015611ff95760008381526006602090815260408083206001600160a01b03891684529091529020426004909101555b60008381526006602090815260408083206001600160a01b03891684529091528120600301805486929061202e9084906126c5565b90915550506003805460008581526006602090815260408083206001600160a01b038b168452909152902090910154612067919061275f565b60008481526006602090815260408083206001600160a01b038a168452909152902060010155505b50505050565b60006120ea826040518060400160405280602081526020017f5361666545524332303a206c6f772d6c6576656c2063616c6c206661696c6564815250856001600160a01b03166121679092919063ffffffff16565b805190915015611bde578080602001905181019061210891906127bd565b611bde5760405162461bcd60e51b815260206004820152602a60248201527f5361666545524332303a204552433230206f7065726174696f6e20646964206e6044820152691bdd081cdd58d8d9595960b21b6064820152608401610426565b6060612176848460008561217e565b949350505050565b6060824710156121df5760405162461bcd60e51b815260206004820152602660248201527f416464726573733a20696e73756666696369656e742062616c616e636520666f6044820152651c8818d85b1b60d21b6064820152608401610426565b600080866001600160a01b031685876040516121fb91906127fe565b60006040518083038185875af1925050503d8060008114612238576040519150601f19603f3d011682016040523d82523d6000602084013e61223d565b606091505b509150915061224e87838387612259565b979650505050505050565b606083156122c85782516000036122c1576001600160a01b0385163b6122c15760405162461bcd60e51b815260206004820152601d60248201527f416464726573733a2063616c6c20746f206e6f6e2d636f6e74726163740000006044820152606401610426565b5081612176565b61217683838151156122dd5781518083602001fd5b8060405162461bcd60e51b8152600401610426919061281a565b82805482825590600052602060002090810192821561234c579160200282015b8281111561234c57825182546001600160a01b0319166001600160a01b03909116178255602090920191600190910190612317565b5061235892915061235c565b5090565b5b80821115612358576000815560010161235d565b80356001600160a01b0381168114611c7557600080fd5b60006020828403121561239a57600080fd5b6116db82612371565b600080604083850312156123b657600080fd5b6123bf83612371565b946020939093013593505050565b6000806000606084860312156123e257600080fd5b6123eb84612371565b95602085013595506040909401359392505050565b8015158114611b7157600080fd5b6000806000806080858703121561242457600080fd5b61242d85612371565b93506020850135925060408501359150606085013561244b81612400565b939692955090935050565b634e487b7160e01b600052604160045260246000fd5b6000806000806080858703121561248257600080fd5b843567ffffffffffffffff8082111561249a57600080fd5b818701915087601f8301126124ae57600080fd5b81356020828211156124c2576124c2612456565b8160051b604051601f19603f830116810181811086821117156124e7576124e7612456565b60405292835281830193508481018201928b84111561250557600080fd5b948201945b8386101561252a5761251b86612371565b8552948201949382019361250a565b9b918a01359a505060408901359860600135975095505050505050565b60006020828403121561255957600080fd5b5035919050565b602080825282511515828201528281015161010060408401819052815161012085018190526000939283019184916101408701905b808410156125be5784516001600160a01b03168252938501936001939093019290850190612595565b5060408801516001600160a01b0381166060890152945060608801516080880152608088015160a088015260a088015160c088015260c088015160e088015260e088015182880152809550505050505092915050565b600081518084526020808501945080840160005b8381101561264d5781516001600160a01b031687529582019590820190600101612628565b509495945050505050565b60408152600061266b6040830185612614565b82810360208481019190915284518083528582019282019060005b818110156126a257845183529383019391830191600101612686565b5090979650505050505050565b634e487b7160e01b600052601160045260246000fd5b81810381811115610956576109566126af565b634e487b7160e01b600052603260045260246000fd5b80820180821115610956576109566126af565b600060018201612713576127136126af565b5060010190565b60208082526025908201527f6d73672e73656e646572206973206e6f74204144465f5374616b696e675f4164604082015264647265737360d81b606082015260800190565b60008261277c57634e487b7160e01b600052601260045260246000fd5b500490565b8082028115828204841417610956576109566126af565b6060815260006127ab6060830186612614565b60208301949094525060400152919050565b6000602082840312156127cf57600080fd5b81516116db81612400565b60005b838110156127f55781810151838201526020016127dd565b50506000910152565b600082516128108184602087016127da565b9190910192915050565b60208152600082518060208401526128398160408501602087016127da565b601f01601f1916919091016040019291505056fea264697066735822122035ac7f3d1e04dff6551186a116c951781f4b672929f3097c55e947aa8f4d3e7264736f6c63430008110033",
  "linkReferences": {},
  "deployedLinkReferences": {}
}